{
  "abi": [
    {
      "anonymous": false,
      "inputs": [
        {
          "indexed": true,
          "internalType": "uint256",
          "name": "id",
          "type": "uint256"
        },
        {
          "indexed": false,
          "internalType": "uint256",
          "name": "methaneLevel",
          "type": "uint256"
        },
        {
          "indexed": false,
          "internalType": "string",
          "name": "timestamp",
          "type": "string"
        }
      ],
      "name": "AssetCreated",
      "type": "event"
    },
    {
      "inputs": [],
      "name": "assetCount",
      "outputs": [
        {
          "internalType": "uint256",
          "name": "",
          "type": "uint256"
        }
      ],
      "stateMutability": "view",
      "type": "function"
    },
    {
      "inputs": [
        {
          "internalType": "uint256",
          "name": "",
          "type": "uint256"
        }
      ],
      "name": "assets",
      "outputs": [
        {
          "internalType": "uint256",
          "name": "methaneLevel",
          "type": "uint256"
        },
        {
          "internalType": "string",
          "name": "timestamp",
          "type": "string"
        }
      ],
      "stateMutability": "view",
      "type": "function"
    },
    {
      "inputs": [
        {
          "internalType": "uint256",
          "name": "_methaneLevel",
          "type": "uint256"
        },
        {
          "internalType": "string",
          "name": "_timestamp",
          "type": "string"
        }
      ],
      "name": "createAsset",
      "outputs": [],
      "stateMutability": "nonpayable",
      "type": "function"
    },
    {
      "inputs": [],
      "name": "getAssets",
      "outputs": [
        {
          "components": [
            {
              "internalType": "uint256",
              "name": "methaneLevel",
              "type": "uint256"
            },
            {
              "internalType": "string",
              "name": "timestamp",
              "type": "string"
            }
          ],
          "internalType": "struct AssetContract.Asset[]",
          "name": "",
          "type": "tuple[]"
        }
      ],
      "stateMutability": "view",
      "type": "function"
    }
  ],
  "devdoc": {
    "kind": "dev",
    "methods": {},
    "version": 1
  },
  "evm": {
    "assembly": "    /* \"AssetContract.sol\":57:1049  contract AssetContract {... */\n  mstore(0x40, 0x80)\n  callvalue\n  dup1\n  iszero\n  tag_1\n  jumpi\n  0x00\n  dup1\n  revert\ntag_1:\n  pop\n  dataSize(sub_0)\n  dup1\n  dataOffset(sub_0)\n  0x00\n  codecopy\n  0x00\n  return\nstop\n\nsub_0: assembly {\n        /* \"AssetContract.sol\":57:1049  contract AssetContract {... */\n      mstore(0x40, 0x80)\n      callvalue\n      dup1\n      iszero\n      tag_1\n      jumpi\n      0x00\n      dup1\n      revert\n    tag_1:\n      pop\n      jumpi(tag_2, lt(calldatasize, 0x04))\n      shr(0xe0, calldataload(0x00))\n      dup1\n      0x67e4ac2c\n      eq\n      tag_3\n      jumpi\n      dup1\n      0xcbcfe3ca\n      eq\n      tag_4\n      jumpi\n      dup1\n      0xcf35bdd0\n      eq\n      tag_5\n      jumpi\n      dup1\n      0xeafe7a74\n      eq\n      tag_6\n      jumpi\n    tag_2:\n      0x00\n      dup1\n      revert\n        /* \"AssetContract.sol\":790:1047  function getAssets() external view returns (Asset[] memory) {... */\n    tag_3:\n      tag_7\n      tag_8\n      jump\t// in\n    tag_7:\n      mload(0x40)\n      tag_9\n      swap2\n      swap1\n      tag_10\n      jump\t// in\n    tag_9:\n      mload(0x40)\n      dup1\n      swap2\n      sub\n      swap1\n      return\n        /* \"AssetContract.sol\":330:784  function createAsset(uint256 _methaneLevel, string memory _timestamp) external {... */\n    tag_4:\n      tag_11\n      0x04\n      dup1\n      calldatasize\n      sub\n      dup2\n      add\n      swap1\n      tag_12\n      swap2\n      swap1\n      tag_13\n      jump\t// in\n    tag_12:\n      tag_14\n      jump\t// in\n    tag_11:\n      stop\n        /* \"AssetContract.sol\":168:207  mapping(uint256 => Asset) public assets */\n    tag_5:\n      tag_15\n      0x04\n      dup1\n      calldatasize\n      sub\n      dup2\n      add\n      swap1\n      tag_16\n      swap2\n      swap1\n      tag_17\n      jump\t// in\n    tag_16:\n      tag_18\n      jump\t// in\n    tag_15:\n      mload(0x40)\n      tag_19\n      swap3\n      swap2\n      swap1\n      tag_20\n      jump\t// in\n    tag_19:\n      mload(0x40)\n      dup1\n      swap2\n      sub\n      swap1\n      return\n        /* \"AssetContract.sol\":213:238  uint256 public assetCount */\n    tag_6:\n      tag_21\n      tag_22\n      jump\t// in\n    tag_21:\n      mload(0x40)\n      tag_23\n      swap2\n      swap1\n      tag_24\n      jump\t// in\n    tag_23:\n      mload(0x40)\n      dup1\n      swap2\n      sub\n      swap1\n      return\n        /* \"AssetContract.sol\":790:1047  function getAssets() external view returns (Asset[] memory) {... */\n    tag_8:\n        /* \"AssetContract.sol\":834:848  Asset[] memory */\n      0x60\n        /* \"AssetContract.sol\":860:884  Asset[] memory allAssets */\n      0x00\n        /* \"AssetContract.sol\":899:909  assetCount */\n      sload(0x01)\n        /* \"AssetContract.sol\":887:910  new Asset[](assetCount) */\n      0xffffffffffffffff\n      dup2\n      gt\n      iszero\n      tag_26\n      jumpi\n      tag_27\n      tag_28\n      jump\t// in\n    tag_27:\n    tag_26:\n      mload(0x40)\n      swap1\n      dup1\n      dup3\n      mstore\n      dup1\n      0x20\n      mul\n      0x20\n      add\n      dup3\n      add\n      0x40\n      mstore\n      dup1\n      iszero\n      tag_29\n      jumpi\n      dup2\n      0x20\n      add\n    tag_30:\n      tag_31\n      tag_32\n      jump\t// in\n    tag_31:\n      dup2\n      mstore\n      0x20\n      add\n      swap1\n      0x01\n      swap1\n      sub\n      swap1\n      dup2\n      tag_30\n      jumpi\n      swap1\n      pop\n    tag_29:\n      pop\n        /* \"AssetContract.sol\":860:910  Asset[] memory allAssets = new Asset[](assetCount) */\n      swap1\n      pop\n        /* \"AssetContract.sol\":925:934  uint256 i */\n      0x00\n        /* \"AssetContract.sol\":937:938  1 */\n      0x01\n        /* \"AssetContract.sol\":925:938  uint256 i = 1 */\n      swap1\n      pop\n        /* \"AssetContract.sol\":920:1015  for (uint256 i = 1; i <= assetCount; i++) {... */\n    tag_33:\n        /* \"AssetContract.sol\":945:955  assetCount */\n      sload(0x01)\n        /* \"AssetContract.sol\":940:941  i */\n      dup2\n        /* \"AssetContract.sol\":940:955  i <= assetCount */\n      gt\n        /* \"AssetContract.sol\":920:1015  for (uint256 i = 1; i <= assetCount; i++) {... */\n      tag_34\n      jumpi\n        /* \"AssetContract.sol\":995:1001  assets */\n      0x00\n        /* \"AssetContract.sol\":995:1004  assets[i] */\n      dup1\n        /* \"AssetContract.sol\":1002:1003  i */\n      dup3\n        /* \"AssetContract.sol\":995:1004  assets[i] */\n      dup2\n      mstore\n      0x20\n      add\n      swap1\n      dup2\n      mstore\n      0x20\n      add\n      0x00\n      keccak256\n        /* \"AssetContract.sol\":976:1004  allAssets[i - 1] = assets[i] */\n      mload(0x40)\n      dup1\n      0x40\n      add\n      0x40\n      mstore\n      swap1\n      dup2\n      0x00\n      dup3\n      add\n      sload\n      dup2\n      mstore\n      0x20\n      add\n      0x01\n      dup3\n      add\n      dup1\n      sload\n      tag_36\n      swap1\n      tag_37\n      jump\t// in\n    tag_36:\n      dup1\n      0x1f\n      add\n      0x20\n      dup1\n      swap2\n      div\n      mul\n      0x20\n      add\n      mload(0x40)\n      swap1\n      dup2\n      add\n      0x40\n      mstore\n      dup1\n      swap3\n      swap2\n      swap1\n      dup2\n      dup2\n      mstore\n      0x20\n      add\n      dup3\n      dup1\n      sload\n      tag_38\n      swap1\n      tag_37\n      jump\t// in\n    tag_38:\n      dup1\n      iszero\n      tag_39\n      jumpi\n      dup1\n      0x1f\n      lt\n      tag_40\n      jumpi\n      0x0100\n      dup1\n      dup4\n      sload\n      div\n      mul\n      dup4\n      mstore\n      swap2\n      0x20\n      add\n      swap2\n      jump(tag_39)\n    tag_40:\n      dup3\n      add\n      swap2\n      swap1\n      0x00\n      mstore\n      keccak256(0x00, 0x20)\n      swap1\n    tag_41:\n      dup2\n      sload\n      dup2\n      mstore\n      swap1\n      0x01\n      add\n      swap1\n      0x20\n      add\n      dup1\n      dup4\n      gt\n      tag_41\n      jumpi\n      dup3\n      swap1\n      sub\n      0x1f\n      and\n      dup3\n      add\n      swap2\n    tag_39:\n      pop\n      pop\n      pop\n      pop\n      pop\n      dup2\n      mstore\n      pop\n      pop\n        /* \"AssetContract.sol\":976:985  allAssets */\n      dup3\n        /* \"AssetContract.sol\":990:991  1 */\n      0x01\n        /* \"AssetContract.sol\":986:987  i */\n      dup4\n        /* \"AssetContract.sol\":986:991  i - 1 */\n      tag_42\n      swap2\n      swap1\n      tag_43\n      jump\t// in\n    tag_42:\n        /* \"AssetContract.sol\":976:992  allAssets[i - 1] */\n      dup2\n      mload\n      dup2\n      lt\n      tag_44\n      jumpi\n      tag_45\n      tag_46\n      jump\t// in\n    tag_45:\n    tag_44:\n      0x20\n      mul\n      0x20\n      add\n      add\n        /* \"AssetContract.sol\":976:1004  allAssets[i - 1] = assets[i] */\n      dup2\n      swap1\n      mstore\n      pop\n        /* \"AssetContract.sol\":957:960  i++ */\n      dup1\n      dup1\n      tag_47\n      swap1\n      tag_48\n      jump\t// in\n    tag_47:\n      swap2\n      pop\n      pop\n        /* \"AssetContract.sol\":920:1015  for (uint256 i = 1; i <= assetCount; i++) {... */\n      jump(tag_33)\n    tag_34:\n      pop\n        /* \"AssetContract.sol\":1031:1040  allAssets */\n      dup1\n        /* \"AssetContract.sol\":1024:1040  return allAssets */\n      swap2\n      pop\n      pop\n        /* \"AssetContract.sol\":790:1047  function getAssets() external view returns (Asset[] memory) {... */\n      swap1\n      jump\t// out\n        /* \"AssetContract.sol\":330:784  function createAsset(uint256 _methaneLevel, string memory _timestamp) external {... */\n    tag_14:\n        /* \"AssetContract.sol\":443:444  0 */\n      0x00\n        /* \"AssetContract.sol\":427:440  _methaneLevel */\n      dup3\n        /* \"AssetContract.sol\":427:444  _methaneLevel > 0 */\n      gt\n        /* \"AssetContract.sol\":419:485  require(_methaneLevel > 0, \"Methane level must be greater than 0\") */\n      tag_50\n      jumpi\n      mload(0x40)\n      0x08c379a000000000000000000000000000000000000000000000000000000000\n      dup2\n      mstore\n      0x04\n      add\n      tag_51\n      swap1\n      tag_52\n      jump\t// in\n    tag_51:\n      mload(0x40)\n      dup1\n      swap2\n      sub\n      swap1\n      revert\n    tag_50:\n        /* \"AssetContract.sol\":530:531  0 */\n      0x00\n        /* \"AssetContract.sol\":509:519  _timestamp */\n      dup2\n        /* \"AssetContract.sol\":503:527  bytes(_timestamp).length */\n      mload\n        /* \"AssetContract.sol\":503:531  bytes(_timestamp).length > 0 */\n      gt\n        /* \"AssetContract.sol\":495:562  require(bytes(_timestamp).length > 0, \"Timestamp must be provided\") */\n      tag_53\n      jumpi\n      mload(0x40)\n      0x08c379a000000000000000000000000000000000000000000000000000000000\n      dup2\n      mstore\n      0x04\n      add\n      tag_54\n      swap1\n      tag_55\n      jump\t// in\n    tag_54:\n      mload(0x40)\n      dup1\n      swap2\n      sub\n      swap1\n      revert\n    tag_53:\n        /* \"AssetContract.sol\":573:583  assetCount */\n      0x01\n      0x00\n        /* \"AssetContract.sol\":573:585  assetCount++ */\n      dup2\n      sload\n      dup1\n      swap3\n      swap2\n      swap1\n      tag_56\n      swap1\n      tag_48\n      jump\t// in\n    tag_56:\n      swap2\n      swap1\n      pop\n      sstore\n      pop\n        /* \"AssetContract.sol\":617:710  Asset({... */\n      mload(0x40)\n      dup1\n      0x40\n      add\n      0x40\n      mstore\n      dup1\n        /* \"AssetContract.sol\":651:664  _methaneLevel */\n      dup4\n        /* \"AssetContract.sol\":617:710  Asset({... */\n      dup2\n      mstore\n      0x20\n      add\n        /* \"AssetContract.sol\":689:699  _timestamp */\n      dup3\n        /* \"AssetContract.sol\":617:710  Asset({... */\n      dup2\n      mstore\n      pop\n        /* \"AssetContract.sol\":596:602  assets */\n      0x00\n        /* \"AssetContract.sol\":596:614  assets[assetCount] */\n      dup1\n        /* \"AssetContract.sol\":603:613  assetCount */\n      sload(0x01)\n        /* \"AssetContract.sol\":596:614  assets[assetCount] */\n      dup2\n      mstore\n      0x20\n      add\n      swap1\n      dup2\n      mstore\n      0x20\n      add\n      0x00\n      keccak256\n        /* \"AssetContract.sol\":596:710  assets[assetCount] = Asset({... */\n      0x00\n      dup3\n      add\n      mload\n      dup2\n      0x00\n      add\n      sstore\n      0x20\n      dup3\n      add\n      mload\n      dup2\n      0x01\n      add\n      swap1\n      dup1\n      mload\n      swap1\n      0x20\n      add\n      swap1\n      tag_57\n      swap3\n      swap2\n      swap1\n      tag_58\n      jump\t// in\n    tag_57:\n      pop\n      swap1\n      pop\n      pop\n        /* \"AssetContract.sol\":739:749  assetCount */\n      sload(0x01)\n        /* \"AssetContract.sol\":726:777  AssetCreated(assetCount, _methaneLevel, _timestamp) */\n      0xf9caf9c3c6728ca3e890634a3ba8e865312961a85071a2a9659d0b7c3b9d2155\n        /* \"AssetContract.sol\":751:764  _methaneLevel */\n      dup4\n        /* \"AssetContract.sol\":766:776  _timestamp */\n      dup4\n        /* \"AssetContract.sol\":726:777  AssetCreated(assetCount, _methaneLevel, _timestamp) */\n      mload(0x40)\n      tag_59\n      swap3\n      swap2\n      swap1\n      tag_20\n      jump\t// in\n    tag_59:\n      mload(0x40)\n      dup1\n      swap2\n      sub\n      swap1\n      log2\n        /* \"AssetContract.sol\":330:784  function createAsset(uint256 _methaneLevel, string memory _timestamp) external {... */\n      pop\n      pop\n      jump\t// out\n        /* \"AssetContract.sol\":168:207  mapping(uint256 => Asset) public assets */\n    tag_18:\n      mstore(0x20, 0x00)\n      dup1\n      0x00\n      mstore\n      keccak256(0x00, 0x40)\n      0x00\n      swap2\n      pop\n      swap1\n      pop\n      dup1\n      0x00\n      add\n      sload\n      swap1\n      dup1\n      0x01\n      add\n      dup1\n      sload\n      tag_60\n      swap1\n      tag_37\n      jump\t// in\n    tag_60:\n      dup1\n      0x1f\n      add\n      0x20\n      dup1\n      swap2\n      div\n      mul\n      0x20\n      add\n      mload(0x40)\n      swap1\n      dup2\n      add\n      0x40\n      mstore\n      dup1\n      swap3\n      swap2\n      swap1\n      dup2\n      dup2\n      mstore\n      0x20\n      add\n      dup3\n      dup1\n      sload\n      tag_61\n      swap1\n      tag_37\n      jump\t// in\n    tag_61:\n      dup1\n      iszero\n      tag_62\n      jumpi\n      dup1\n      0x1f\n      lt\n      tag_63\n      jumpi\n      0x0100\n      dup1\n      dup4\n      sload\n      div\n      mul\n      dup4\n      mstore\n      swap2\n      0x20\n      add\n      swap2\n      jump(tag_62)\n    tag_63:\n      dup3\n      add\n      swap2\n      swap1\n      0x00\n      mstore\n      keccak256(0x00, 0x20)\n      swap1\n    tag_64:\n      dup2\n      sload\n      dup2\n      mstore\n      swap1\n      0x01\n      add\n      swap1\n      0x20\n      add\n      dup1\n      dup4\n      gt\n      tag_64\n      jumpi\n      dup3\n      swap1\n      sub\n      0x1f\n      and\n      dup3\n      add\n      swap2\n    tag_62:\n      pop\n      pop\n      pop\n      pop\n      pop\n      swap1\n      pop\n      dup3\n      jump\t// out\n        /* \"AssetContract.sol\":213:238  uint256 public assetCount */\n    tag_22:\n      sload(0x01)\n      dup2\n      jump\t// out\n    tag_32:\n      mload(0x40)\n      dup1\n      0x40\n      add\n      0x40\n      mstore\n      dup1\n      0x00\n      dup2\n      mstore\n      0x20\n      add\n      0x60\n      dup2\n      mstore\n      pop\n      swap1\n      jump\t// out\n    tag_58:\n      dup3\n      dup1\n      sload\n      tag_65\n      swap1\n      tag_37\n      jump\t// in\n    tag_65:\n      swap1\n      0x00\n      mstore\n      keccak256(0x00, 0x20)\n      swap1\n      0x1f\n      add\n      0x20\n      swap1\n      div\n      dup2\n      add\n      swap3\n      dup3\n      tag_67\n      jumpi\n      0x00\n      dup6\n      sstore\n      jump(tag_66)\n    tag_67:\n      dup3\n      0x1f\n      lt\n      tag_68\n      jumpi\n      dup1\n      mload\n      not(0xff)\n      and\n      dup4\n      dup1\n      add\n      or\n      dup6\n      sstore\n      jump(tag_66)\n    tag_68:\n      dup3\n      dup1\n      add\n      0x01\n      add\n      dup6\n      sstore\n      dup3\n      iszero\n      tag_66\n      jumpi\n      swap2\n      dup3\n      add\n    tag_69:\n      dup3\n      dup2\n      gt\n      iszero\n      tag_70\n      jumpi\n      dup3\n      mload\n      dup3\n      sstore\n      swap2\n      0x20\n      add\n      swap2\n      swap1\n      0x01\n      add\n      swap1\n      jump(tag_69)\n    tag_70:\n    tag_66:\n      pop\n      swap1\n      pop\n      tag_71\n      swap2\n      swap1\n      tag_72\n      jump\t// in\n    tag_71:\n      pop\n      swap1\n      jump\t// out\n    tag_72:\n    tag_73:\n      dup1\n      dup3\n      gt\n      iszero\n      tag_74\n      jumpi\n      0x00\n      dup2\n      0x00\n      swap1\n      sstore\n      pop\n      0x01\n      add\n      jump(tag_73)\n    tag_74:\n      pop\n      swap1\n      jump\t// out\n        /* \"#utility.yul\":7:141   */\n    tag_75:\n        /* \"#utility.yul\":94:100   */\n      0x00\n        /* \"#utility.yul\":128:133   */\n      dup2\n        /* \"#utility.yul\":122:134   */\n      mload\n        /* \"#utility.yul\":112:134   */\n      swap1\n      pop\n        /* \"#utility.yul\":7:141   */\n      swap2\n      swap1\n      pop\n      jump\t// out\n        /* \"#utility.yul\":147:351   */\n    tag_76:\n        /* \"#utility.yul\":266:277   */\n      0x00\n        /* \"#utility.yul\":300:306   */\n      dup3\n        /* \"#utility.yul\":295:298   */\n      dup3\n        /* \"#utility.yul\":288:307   */\n      mstore\n        /* \"#utility.yul\":340:344   */\n      0x20\n        /* \"#utility.yul\":335:338   */\n      dup3\n        /* \"#utility.yul\":331:345   */\n      add\n        /* \"#utility.yul\":316:345   */\n      swap1\n      pop\n        /* \"#utility.yul\":147:351   */\n      swap3\n      swap2\n      pop\n      pop\n      jump\t// out\n        /* \"#utility.yul\":357:509   */\n    tag_77:\n        /* \"#utility.yul\":444:448   */\n      0x00\n        /* \"#utility.yul\":467:470   */\n      dup2\n        /* \"#utility.yul\":459:470   */\n      swap1\n      pop\n        /* \"#utility.yul\":497:501   */\n      0x20\n        /* \"#utility.yul\":492:495   */\n      dup3\n        /* \"#utility.yul\":488:502   */\n      add\n        /* \"#utility.yul\":480:502   */\n      swap1\n      pop\n        /* \"#utility.yul\":357:509   */\n      swap2\n      swap1\n      pop\n      jump\t// out\n        /* \"#utility.yul\":515:592   */\n    tag_78:\n        /* \"#utility.yul\":552:559   */\n      0x00\n        /* \"#utility.yul\":581:586   */\n      dup2\n        /* \"#utility.yul\":570:586   */\n      swap1\n      pop\n        /* \"#utility.yul\":515:592   */\n      swap2\n      swap1\n      pop\n      jump\t// out\n        /* \"#utility.yul\":598:706   */\n    tag_79:\n        /* \"#utility.yul\":675:699   */\n      tag_117\n        /* \"#utility.yul\":693:698   */\n      dup2\n        /* \"#utility.yul\":675:699   */\n      tag_78\n      jump\t// in\n    tag_117:\n        /* \"#utility.yul\":670:673   */\n      dup3\n        /* \"#utility.yul\":663:700   */\n      mstore\n        /* \"#utility.yul\":598:706   */\n      pop\n      pop\n      jump\t// out\n        /* \"#utility.yul\":712:811   */\n    tag_80:\n        /* \"#utility.yul\":764:770   */\n      0x00\n        /* \"#utility.yul\":798:803   */\n      dup2\n        /* \"#utility.yul\":792:804   */\n      mload\n        /* \"#utility.yul\":782:804   */\n      swap1\n      pop\n        /* \"#utility.yul\":712:811   */\n      swap2\n      swap1\n      pop\n      jump\t// out\n        /* \"#utility.yul\":817:976   */\n    tag_81:\n        /* \"#utility.yul\":891:902   */\n      0x00\n        /* \"#utility.yul\":925:931   */\n      dup3\n        /* \"#utility.yul\":920:923   */\n      dup3\n        /* \"#utility.yul\":913:932   */\n      mstore\n        /* \"#utility.yul\":965:969   */\n      0x20\n        /* \"#utility.yul\":960:963   */\n      dup3\n        /* \"#utility.yul\":956:970   */\n      add\n        /* \"#utility.yul\":941:970   */\n      swap1\n      pop\n        /* \"#utility.yul\":817:976   */\n      swap3\n      swap2\n      pop\n      pop\n      jump\t// out\n        /* \"#utility.yul\":982:1289   */\n    tag_82:\n        /* \"#utility.yul\":1050:1051   */\n      0x00\n        /* \"#utility.yul\":1060:1173   */\n    tag_121:\n        /* \"#utility.yul\":1074:1080   */\n      dup4\n        /* \"#utility.yul\":1071:1072   */\n      dup2\n        /* \"#utility.yul\":1068:1081   */\n      lt\n        /* \"#utility.yul\":1060:1173   */\n      iszero\n      tag_123\n      jumpi\n        /* \"#utility.yul\":1159:1160   */\n      dup1\n        /* \"#utility.yul\":1154:1157   */\n      dup3\n        /* \"#utility.yul\":1150:1161   */\n      add\n        /* \"#utility.yul\":1144:1162   */\n      mload\n        /* \"#utility.yul\":1140:1141   */\n      dup2\n        /* \"#utility.yul\":1135:1138   */\n      dup5\n        /* \"#utility.yul\":1131:1142   */\n      add\n        /* \"#utility.yul\":1124:1163   */\n      mstore\n        /* \"#utility.yul\":1096:1098   */\n      0x20\n        /* \"#utility.yul\":1093:1094   */\n      dup2\n        /* \"#utility.yul\":1089:1099   */\n      add\n        /* \"#utility.yul\":1084:1099   */\n      swap1\n      pop\n        /* \"#utility.yul\":1060:1173   */\n      jump(tag_121)\n    tag_123:\n        /* \"#utility.yul\":1191:1197   */\n      dup4\n        /* \"#utility.yul\":1188:1189   */\n      dup2\n        /* \"#utility.yul\":1185:1198   */\n      gt\n        /* \"#utility.yul\":1182:1283   */\n      iszero\n      tag_124\n      jumpi\n        /* \"#utility.yul\":1271:1272   */\n      0x00\n        /* \"#utility.yul\":1262:1268   */\n      dup5\n        /* \"#utility.yul\":1257:1260   */\n      dup5\n        /* \"#utility.yul\":1253:1269   */\n      add\n        /* \"#utility.yul\":1246:1273   */\n      mstore\n        /* \"#utility.yul\":1182:1283   */\n    tag_124:\n        /* \"#utility.yul\":1031:1289   */\n      pop\n        /* \"#utility.yul\":982:1289   */\n      pop\n      pop\n      pop\n      jump\t// out\n        /* \"#utility.yul\":1295:1397   */\n    tag_83:\n        /* \"#utility.yul\":1336:1342   */\n      0x00\n        /* \"#utility.yul\":1387:1389   */\n      0x1f\n        /* \"#utility.yul\":1383:1390   */\n      not\n        /* \"#utility.yul\":1378:1380   */\n      0x1f\n        /* \"#utility.yul\":1371:1376   */\n      dup4\n        /* \"#utility.yul\":1367:1381   */\n      add\n        /* \"#utility.yul\":1363:1391   */\n      and\n        /* \"#utility.yul\":1353:1391   */\n      swap1\n      pop\n        /* \"#utility.yul\":1295:1397   */\n      swap2\n      swap1\n      pop\n      jump\t// out\n        /* \"#utility.yul\":1403:1747   */\n    tag_84:\n        /* \"#utility.yul\":1481:1484   */\n      0x00\n        /* \"#utility.yul\":1509:1548   */\n      tag_127\n        /* \"#utility.yul\":1542:1547   */\n      dup3\n        /* \"#utility.yul\":1509:1548   */\n      tag_80\n      jump\t// in\n    tag_127:\n        /* \"#utility.yul\":1564:1625   */\n      tag_128\n        /* \"#utility.yul\":1618:1624   */\n      dup2\n        /* \"#utility.yul\":1613:1616   */\n      dup6\n        /* \"#utility.yul\":1564:1625   */\n      tag_81\n      jump\t// in\n    tag_128:\n        /* \"#utility.yul\":1557:1625   */\n      swap4\n      pop\n        /* \"#utility.yul\":1634:1686   */\n      tag_129\n        /* \"#utility.yul\":1679:1685   */\n      dup2\n        /* \"#utility.yul\":1674:1677   */\n      dup6\n        /* \"#utility.yul\":1667:1671   */\n      0x20\n        /* \"#utility.yul\":1660:1665   */\n      dup7\n        /* \"#utility.yul\":1656:1672   */\n      add\n        /* \"#utility.yul\":1634:1686   */\n      tag_82\n      jump\t// in\n    tag_129:\n        /* \"#utility.yul\":1711:1740   */\n      tag_130\n        /* \"#utility.yul\":1733:1739   */\n      dup2\n        /* \"#utility.yul\":1711:1740   */\n      tag_83\n      jump\t// in\n    tag_130:\n        /* \"#utility.yul\":1706:1709   */\n      dup5\n        /* \"#utility.yul\":1702:1741   */\n      add\n        /* \"#utility.yul\":1695:1741   */\n      swap2\n      pop\n        /* \"#utility.yul\":1485:1747   */\n      pop\n        /* \"#utility.yul\":1403:1747   */\n      swap3\n      swap2\n      pop\n      pop\n      jump\t// out\n        /* \"#utility.yul\":1817:2416   */\n    tag_85:\n        /* \"#utility.yul\":1916:1919   */\n      0x00\n        /* \"#utility.yul\":1952:1956   */\n      0x40\n        /* \"#utility.yul\":1947:1950   */\n      dup4\n        /* \"#utility.yul\":1943:1957   */\n      add\n        /* \"#utility.yul\":2047:2051   */\n      0x00\n        /* \"#utility.yul\":2040:2045   */\n      dup4\n        /* \"#utility.yul\":2036:2052   */\n      add\n        /* \"#utility.yul\":2030:2053   */\n      mload\n        /* \"#utility.yul\":2066:2129   */\n      tag_132\n        /* \"#utility.yul\":2123:2127   */\n      0x00\n        /* \"#utility.yul\":2118:2121   */\n      dup7\n        /* \"#utility.yul\":2114:2128   */\n      add\n        /* \"#utility.yul\":2100:2112   */\n      dup3\n        /* \"#utility.yul\":2066:2129   */\n      tag_79\n      jump\t// in\n    tag_132:\n        /* \"#utility.yul\":1967:2139   */\n      pop\n        /* \"#utility.yul\":2226:2230   */\n      0x20\n        /* \"#utility.yul\":2219:2224   */\n      dup4\n        /* \"#utility.yul\":2215:2231   */\n      add\n        /* \"#utility.yul\":2209:2232   */\n      mload\n        /* \"#utility.yul\":2279:2282   */\n      dup5\n        /* \"#utility.yul\":2273:2277   */\n      dup3\n        /* \"#utility.yul\":2269:2283   */\n      sub\n        /* \"#utility.yul\":2262:2266   */\n      0x20\n        /* \"#utility.yul\":2257:2260   */\n      dup7\n        /* \"#utility.yul\":2253:2267   */\n      add\n        /* \"#utility.yul\":2246:2284   */\n      mstore\n        /* \"#utility.yul\":2305:2378   */\n      tag_133\n        /* \"#utility.yul\":2373:2377   */\n      dup3\n        /* \"#utility.yul\":2359:2371   */\n      dup3\n        /* \"#utility.yul\":2305:2378   */\n      tag_84\n      jump\t// in\n    tag_133:\n        /* \"#utility.yul\":2297:2378   */\n      swap2\n      pop\n        /* \"#utility.yul\":2149:2389   */\n      pop\n        /* \"#utility.yul\":2406:2410   */\n      dup1\n        /* \"#utility.yul\":2399:2410   */\n      swap2\n      pop\n        /* \"#utility.yul\":1921:2416   */\n      pop\n        /* \"#utility.yul\":1817:2416   */\n      swap3\n      swap2\n      pop\n      pop\n      jump\t// out\n        /* \"#utility.yul\":2422:2658   */\n    tag_86:\n        /* \"#utility.yul\":2531:2541   */\n      0x00\n        /* \"#utility.yul\":2566:2652   */\n      tag_135\n        /* \"#utility.yul\":2648:2651   */\n      dup4\n        /* \"#utility.yul\":2640:2646   */\n      dup4\n        /* \"#utility.yul\":2566:2652   */\n      tag_85\n      jump\t// in\n    tag_135:\n        /* \"#utility.yul\":2552:2652   */\n      swap1\n      pop\n        /* \"#utility.yul\":2422:2658   */\n      swap3\n      swap2\n      pop\n      pop\n      jump\t// out\n        /* \"#utility.yul\":2664:2797   */\n    tag_87:\n        /* \"#utility.yul\":2754:2758   */\n      0x00\n        /* \"#utility.yul\":2786:2790   */\n      0x20\n        /* \"#utility.yul\":2781:2784   */\n      dup3\n        /* \"#utility.yul\":2777:2791   */\n      add\n        /* \"#utility.yul\":2769:2791   */\n      swap1\n      pop\n        /* \"#utility.yul\":2664:2797   */\n      swap2\n      swap1\n      pop\n      jump\t// out\n        /* \"#utility.yul\":2871:3942   */\n    tag_88:\n        /* \"#utility.yul\":3030:3033   */\n      0x00\n        /* \"#utility.yul\":3059:3133   */\n      tag_138\n        /* \"#utility.yul\":3127:3132   */\n      dup3\n        /* \"#utility.yul\":3059:3133   */\n      tag_75\n      jump\t// in\n    tag_138:\n        /* \"#utility.yul\":3149:3255   */\n      tag_139\n        /* \"#utility.yul\":3248:3254   */\n      dup2\n        /* \"#utility.yul\":3243:3246   */\n      dup6\n        /* \"#utility.yul\":3149:3255   */\n      tag_76\n      jump\t// in\n    tag_139:\n        /* \"#utility.yul\":3142:3255   */\n      swap4\n      pop\n        /* \"#utility.yul\":3281:3284   */\n      dup4\n        /* \"#utility.yul\":3326:3330   */\n      0x20\n        /* \"#utility.yul\":3318:3324   */\n      dup3\n        /* \"#utility.yul\":3314:3331   */\n      mul\n        /* \"#utility.yul\":3309:3312   */\n      dup6\n        /* \"#utility.yul\":3305:3332   */\n      add\n        /* \"#utility.yul\":3356:3432   */\n      tag_140\n        /* \"#utility.yul\":3426:3431   */\n      dup6\n        /* \"#utility.yul\":3356:3432   */\n      tag_77\n      jump\t// in\n    tag_140:\n        /* \"#utility.yul\":3455:3462   */\n      dup1\n        /* \"#utility.yul\":3486:3487   */\n      0x00\n        /* \"#utility.yul\":3471:3897   */\n    tag_141:\n        /* \"#utility.yul\":3496:3502   */\n      dup6\n        /* \"#utility.yul\":3493:3494   */\n      dup2\n        /* \"#utility.yul\":3490:3503   */\n      lt\n        /* \"#utility.yul\":3471:3897   */\n      iszero\n      tag_143\n      jumpi\n        /* \"#utility.yul\":3567:3576   */\n      dup5\n        /* \"#utility.yul\":3561:3565   */\n      dup5\n        /* \"#utility.yul\":3557:3577   */\n      sub\n        /* \"#utility.yul\":3552:3555   */\n      dup10\n        /* \"#utility.yul\":3545:3578   */\n      mstore\n        /* \"#utility.yul\":3618:3624   */\n      dup2\n        /* \"#utility.yul\":3612:3625   */\n      mload\n        /* \"#utility.yul\":3646:3750   */\n      tag_144\n        /* \"#utility.yul\":3745:3749   */\n      dup6\n        /* \"#utility.yul\":3730:3743   */\n      dup3\n        /* \"#utility.yul\":3646:3750   */\n      tag_86\n      jump\t// in\n    tag_144:\n        /* \"#utility.yul\":3638:3750   */\n      swap5\n      pop\n        /* \"#utility.yul\":3773:3853   */\n      tag_145\n        /* \"#utility.yul\":3846:3852   */\n      dup4\n        /* \"#utility.yul\":3773:3853   */\n      tag_87\n      jump\t// in\n    tag_145:\n        /* \"#utility.yul\":3763:3853   */\n      swap3\n      pop\n        /* \"#utility.yul\":3882:3886   */\n      0x20\n        /* \"#utility.yul\":3877:3880   */\n      dup11\n        /* \"#utility.yul\":3873:3887   */\n      add\n        /* \"#utility.yul\":3866:3887   */\n      swap10\n      pop\n        /* \"#utility.yul\":3531:3897   */\n      pop\n        /* \"#utility.yul\":3518:3519   */\n      0x01\n        /* \"#utility.yul\":3515:3516   */\n      dup2\n        /* \"#utility.yul\":3511:3520   */\n      add\n        /* \"#utility.yul\":3506:3520   */\n      swap1\n      pop\n        /* \"#utility.yul\":3471:3897   */\n      jump(tag_141)\n    tag_143:\n        /* \"#utility.yul\":3475:3489   */\n      pop\n        /* \"#utility.yul\":3913:3917   */\n      dup3\n        /* \"#utility.yul\":3906:3917   */\n      swap8\n      pop\n        /* \"#utility.yul\":3933:3936   */\n      dup8\n        /* \"#utility.yul\":3926:3936   */\n      swap6\n      pop\n        /* \"#utility.yul\":3035:3942   */\n      pop\n      pop\n      pop\n      pop\n      pop\n        /* \"#utility.yul\":2871:3942   */\n      swap3\n      swap2\n      pop\n      pop\n      jump\t// out\n        /* \"#utility.yul\":3948:4401   */\n    tag_10:\n        /* \"#utility.yul\":4131:4135   */\n      0x00\n        /* \"#utility.yul\":4169:4171   */\n      0x20\n        /* \"#utility.yul\":4158:4167   */\n      dup3\n        /* \"#utility.yul\":4154:4172   */\n      add\n        /* \"#utility.yul\":4146:4172   */\n      swap1\n      pop\n        /* \"#utility.yul\":4218:4227   */\n      dup2\n        /* \"#utility.yul\":4212:4216   */\n      dup2\n        /* \"#utility.yul\":4208:4228   */\n      sub\n        /* \"#utility.yul\":4204:4205   */\n      0x00\n        /* \"#utility.yul\":4193:4202   */\n      dup4\n        /* \"#utility.yul\":4189:4206   */\n      add\n        /* \"#utility.yul\":4182:4229   */\n      mstore\n        /* \"#utility.yul\":4246:4394   */\n      tag_147\n        /* \"#utility.yul\":4389:4393   */\n      dup2\n        /* \"#utility.yul\":4380:4386   */\n      dup5\n        /* \"#utility.yul\":4246:4394   */\n      tag_88\n      jump\t// in\n    tag_147:\n        /* \"#utility.yul\":4238:4394   */\n      swap1\n      pop\n        /* \"#utility.yul\":3948:4401   */\n      swap3\n      swap2\n      pop\n      pop\n      jump\t// out\n        /* \"#utility.yul\":4407:4482   */\n    tag_89:\n        /* \"#utility.yul\":4440:4446   */\n      0x00\n        /* \"#utility.yul\":4473:4475   */\n      0x40\n        /* \"#utility.yul\":4467:4476   */\n      mload\n        /* \"#utility.yul\":4457:4476   */\n      swap1\n      pop\n        /* \"#utility.yul\":4407:4482   */\n      swap1\n      jump\t// out\n        /* \"#utility.yul\":4488:4605   */\n    tag_90:\n        /* \"#utility.yul\":4597:4598   */\n      0x00\n        /* \"#utility.yul\":4594:4595   */\n      dup1\n        /* \"#utility.yul\":4587:4599   */\n      revert\n        /* \"#utility.yul\":4611:4728   */\n    tag_91:\n        /* \"#utility.yul\":4720:4721   */\n      0x00\n        /* \"#utility.yul\":4717:4718   */\n      dup1\n        /* \"#utility.yul\":4710:4722   */\n      revert\n        /* \"#utility.yul\":4734:4856   */\n    tag_92:\n        /* \"#utility.yul\":4807:4831   */\n      tag_152\n        /* \"#utility.yul\":4825:4830   */\n      dup2\n        /* \"#utility.yul\":4807:4831   */\n      tag_78\n      jump\t// in\n    tag_152:\n        /* \"#utility.yul\":4800:4805   */\n      dup2\n        /* \"#utility.yul\":4797:4832   */\n      eq\n        /* \"#utility.yul\":4787:4850   */\n      tag_153\n      jumpi\n        /* \"#utility.yul\":4846:4847   */\n      0x00\n        /* \"#utility.yul\":4843:4844   */\n      dup1\n        /* \"#utility.yul\":4836:4848   */\n      revert\n        /* \"#utility.yul\":4787:4850   */\n    tag_153:\n        /* \"#utility.yul\":4734:4856   */\n      pop\n      jump\t// out\n        /* \"#utility.yul\":4862:5001   */\n    tag_93:\n        /* \"#utility.yul\":4908:4913   */\n      0x00\n        /* \"#utility.yul\":4946:4952   */\n      dup2\n        /* \"#utility.yul\":4933:4953   */\n      calldataload\n        /* \"#utility.yul\":4924:4953   */\n      swap1\n      pop\n        /* \"#utility.yul\":4962:4995   */\n      tag_155\n        /* \"#utility.yul\":4989:4994   */\n      dup2\n        /* \"#utility.yul\":4962:4995   */\n      tag_92\n      jump\t// in\n    tag_155:\n        /* \"#utility.yul\":4862:5001   */\n      swap3\n      swap2\n      pop\n      pop\n      jump\t// out\n        /* \"#utility.yul\":5007:5124   */\n    tag_94:\n        /* \"#utility.yul\":5116:5117   */\n      0x00\n        /* \"#utility.yul\":5113:5114   */\n      dup1\n        /* \"#utility.yul\":5106:5118   */\n      revert\n        /* \"#utility.yul\":5130:5247   */\n    tag_95:\n        /* \"#utility.yul\":5239:5240   */\n      0x00\n        /* \"#utility.yul\":5236:5237   */\n      dup1\n        /* \"#utility.yul\":5229:5241   */\n      revert\n        /* \"#utility.yul\":5253:5433   */\n    tag_28:\n        /* \"#utility.yul\":5301:5378   */\n      0x4e487b7100000000000000000000000000000000000000000000000000000000\n        /* \"#utility.yul\":5298:5299   */\n      0x00\n        /* \"#utility.yul\":5291:5379   */\n      mstore\n        /* \"#utility.yul\":5398:5402   */\n      0x41\n        /* \"#utility.yul\":5395:5396   */\n      0x04\n        /* \"#utility.yul\":5388:5403   */\n      mstore\n        /* \"#utility.yul\":5422:5426   */\n      0x24\n        /* \"#utility.yul\":5419:5420   */\n      0x00\n        /* \"#utility.yul\":5412:5427   */\n      revert\n        /* \"#utility.yul\":5439:5720   */\n    tag_96:\n        /* \"#utility.yul\":5522:5549   */\n      tag_160\n        /* \"#utility.yul\":5544:5548   */\n      dup3\n        /* \"#utility.yul\":5522:5549   */\n      tag_83\n      jump\t// in\n    tag_160:\n        /* \"#utility.yul\":5514:5520   */\n      dup2\n        /* \"#utility.yul\":5510:5550   */\n      add\n        /* \"#utility.yul\":5652:5658   */\n      dup2\n        /* \"#utility.yul\":5640:5650   */\n      dup2\n        /* \"#utility.yul\":5637:5659   */\n      lt\n        /* \"#utility.yul\":5616:5634   */\n      0xffffffffffffffff\n        /* \"#utility.yul\":5604:5614   */\n      dup3\n        /* \"#utility.yul\":5601:5635   */\n      gt\n        /* \"#utility.yul\":5598:5660   */\n      or\n        /* \"#utility.yul\":5595:5683   */\n      iszero\n      tag_161\n      jumpi\n        /* \"#utility.yul\":5663:5681   */\n      tag_162\n      tag_28\n      jump\t// in\n    tag_162:\n        /* \"#utility.yul\":5595:5683   */\n    tag_161:\n        /* \"#utility.yul\":5703:5713   */\n      dup1\n        /* \"#utility.yul\":5699:5701   */\n      0x40\n        /* \"#utility.yul\":5692:5714   */\n      mstore\n        /* \"#utility.yul\":5482:5720   */\n      pop\n        /* \"#utility.yul\":5439:5720   */\n      pop\n      pop\n      jump\t// out\n        /* \"#utility.yul\":5726:5855   */\n    tag_97:\n        /* \"#utility.yul\":5760:5766   */\n      0x00\n        /* \"#utility.yul\":5787:5807   */\n      tag_164\n      tag_89\n      jump\t// in\n    tag_164:\n        /* \"#utility.yul\":5777:5807   */\n      swap1\n      pop\n        /* \"#utility.yul\":5816:5849   */\n      tag_165\n        /* \"#utility.yul\":5844:5848   */\n      dup3\n        /* \"#utility.yul\":5836:5842   */\n      dup3\n        /* \"#utility.yul\":5816:5849   */\n      tag_96\n      jump\t// in\n    tag_165:\n        /* \"#utility.yul\":5726:5855   */\n      swap2\n      swap1\n      pop\n      jump\t// out\n        /* \"#utility.yul\":5861:6169   */\n    tag_98:\n        /* \"#utility.yul\":5923:5927   */\n      0x00\n        /* \"#utility.yul\":6013:6031   */\n      0xffffffffffffffff\n        /* \"#utility.yul\":6005:6011   */\n      dup3\n        /* \"#utility.yul\":6002:6032   */\n      gt\n        /* \"#utility.yul\":5999:6055   */\n      iszero\n      tag_167\n      jumpi\n        /* \"#utility.yul\":6035:6053   */\n      tag_168\n      tag_28\n      jump\t// in\n    tag_168:\n        /* \"#utility.yul\":5999:6055   */\n    tag_167:\n        /* \"#utility.yul\":6073:6102   */\n      tag_169\n        /* \"#utility.yul\":6095:6101   */\n      dup3\n        /* \"#utility.yul\":6073:6102   */\n      tag_83\n      jump\t// in\n    tag_169:\n        /* \"#utility.yul\":6065:6102   */\n      swap1\n      pop\n        /* \"#utility.yul\":6157:6161   */\n      0x20\n        /* \"#utility.yul\":6151:6155   */\n      dup2\n        /* \"#utility.yul\":6147:6162   */\n      add\n        /* \"#utility.yul\":6139:6162   */\n      swap1\n      pop\n        /* \"#utility.yul\":5861:6169   */\n      swap2\n      swap1\n      pop\n      jump\t// out\n        /* \"#utility.yul\":6175:6329   */\n    tag_99:\n        /* \"#utility.yul\":6259:6265   */\n      dup3\n        /* \"#utility.yul\":6254:6257   */\n      dup2\n        /* \"#utility.yul\":6249:6252   */\n      dup4\n        /* \"#utility.yul\":6236:6266   */\n      calldatacopy\n        /* \"#utility.yul\":6321:6322   */\n      0x00\n        /* \"#utility.yul\":6312:6318   */\n      dup4\n        /* \"#utility.yul\":6307:6310   */\n      dup4\n        /* \"#utility.yul\":6303:6319   */\n      add\n        /* \"#utility.yul\":6296:6323   */\n      mstore\n        /* \"#utility.yul\":6175:6329   */\n      pop\n      pop\n      pop\n      jump\t// out\n        /* \"#utility.yul\":6335:6747   */\n    tag_100:\n        /* \"#utility.yul\":6413:6418   */\n      0x00\n        /* \"#utility.yul\":6438:6504   */\n      tag_172\n        /* \"#utility.yul\":6454:6503   */\n      tag_173\n        /* \"#utility.yul\":6496:6502   */\n      dup5\n        /* \"#utility.yul\":6454:6503   */\n      tag_98\n      jump\t// in\n    tag_173:\n        /* \"#utility.yul\":6438:6504   */\n      tag_97\n      jump\t// in\n    tag_172:\n        /* \"#utility.yul\":6429:6504   */\n      swap1\n      pop\n        /* \"#utility.yul\":6527:6533   */\n      dup3\n        /* \"#utility.yul\":6520:6525   */\n      dup2\n        /* \"#utility.yul\":6513:6534   */\n      mstore\n        /* \"#utility.yul\":6565:6569   */\n      0x20\n        /* \"#utility.yul\":6558:6563   */\n      dup2\n        /* \"#utility.yul\":6554:6570   */\n      add\n        /* \"#utility.yul\":6603:6606   */\n      dup5\n        /* \"#utility.yul\":6594:6600   */\n      dup5\n        /* \"#utility.yul\":6589:6592   */\n      dup5\n        /* \"#utility.yul\":6585:6601   */\n      add\n        /* \"#utility.yul\":6582:6607   */\n      gt\n        /* \"#utility.yul\":6579:6691   */\n      iszero\n      tag_174\n      jumpi\n        /* \"#utility.yul\":6610:6689   */\n      tag_175\n      tag_95\n      jump\t// in\n    tag_175:\n        /* \"#utility.yul\":6579:6691   */\n    tag_174:\n        /* \"#utility.yul\":6700:6741   */\n      tag_176\n        /* \"#utility.yul\":6734:6740   */\n      dup5\n        /* \"#utility.yul\":6729:6732   */\n      dup3\n        /* \"#utility.yul\":6724:6727   */\n      dup6\n        /* \"#utility.yul\":6700:6741   */\n      tag_99\n      jump\t// in\n    tag_176:\n        /* \"#utility.yul\":6419:6747   */\n      pop\n        /* \"#utility.yul\":6335:6747   */\n      swap4\n      swap3\n      pop\n      pop\n      pop\n      jump\t// out\n        /* \"#utility.yul\":6767:7107   */\n    tag_101:\n        /* \"#utility.yul\":6823:6828   */\n      0x00\n        /* \"#utility.yul\":6872:6875   */\n      dup3\n        /* \"#utility.yul\":6865:6869   */\n      0x1f\n        /* \"#utility.yul\":6857:6863   */\n      dup4\n        /* \"#utility.yul\":6853:6870   */\n      add\n        /* \"#utility.yul\":6849:6876   */\n      slt\n        /* \"#utility.yul\":6839:6961   */\n      tag_178\n      jumpi\n        /* \"#utility.yul\":6880:6959   */\n      tag_179\n      tag_94\n      jump\t// in\n    tag_179:\n        /* \"#utility.yul\":6839:6961   */\n    tag_178:\n        /* \"#utility.yul\":6997:7003   */\n      dup2\n        /* \"#utility.yul\":6984:7004   */\n      calldataload\n        /* \"#utility.yul\":7022:7101   */\n      tag_180\n        /* \"#utility.yul\":7097:7100   */\n      dup5\n        /* \"#utility.yul\":7089:7095   */\n      dup3\n        /* \"#utility.yul\":7082:7086   */\n      0x20\n        /* \"#utility.yul\":7074:7080   */\n      dup7\n        /* \"#utility.yul\":7070:7087   */\n      add\n        /* \"#utility.yul\":7022:7101   */\n      tag_100\n      jump\t// in\n    tag_180:\n        /* \"#utility.yul\":7013:7101   */\n      swap2\n      pop\n        /* \"#utility.yul\":6829:7107   */\n      pop\n        /* \"#utility.yul\":6767:7107   */\n      swap3\n      swap2\n      pop\n      pop\n      jump\t// out\n        /* \"#utility.yul\":7113:7767   */\n    tag_13:\n        /* \"#utility.yul\":7191:7197   */\n      0x00\n        /* \"#utility.yul\":7199:7205   */\n      dup1\n        /* \"#utility.yul\":7248:7250   */\n      0x40\n        /* \"#utility.yul\":7236:7245   */\n      dup4\n        /* \"#utility.yul\":7227:7234   */\n      dup6\n        /* \"#utility.yul\":7223:7246   */\n      sub\n        /* \"#utility.yul\":7219:7251   */\n      slt\n        /* \"#utility.yul\":7216:7335   */\n      iszero\n      tag_182\n      jumpi\n        /* \"#utility.yul\":7254:7333   */\n      tag_183\n      tag_90\n      jump\t// in\n    tag_183:\n        /* \"#utility.yul\":7216:7335   */\n    tag_182:\n        /* \"#utility.yul\":7374:7375   */\n      0x00\n        /* \"#utility.yul\":7399:7452   */\n      tag_184\n        /* \"#utility.yul\":7444:7451   */\n      dup6\n        /* \"#utility.yul\":7435:7441   */\n      dup3\n        /* \"#utility.yul\":7424:7433   */\n      dup7\n        /* \"#utility.yul\":7420:7442   */\n      add\n        /* \"#utility.yul\":7399:7452   */\n      tag_93\n      jump\t// in\n    tag_184:\n        /* \"#utility.yul\":7389:7452   */\n      swap3\n      pop\n        /* \"#utility.yul\":7345:7462   */\n      pop\n        /* \"#utility.yul\":7529:7531   */\n      0x20\n        /* \"#utility.yul\":7518:7527   */\n      dup4\n        /* \"#utility.yul\":7514:7532   */\n      add\n        /* \"#utility.yul\":7501:7533   */\n      calldataload\n        /* \"#utility.yul\":7560:7578   */\n      0xffffffffffffffff\n        /* \"#utility.yul\":7552:7558   */\n      dup2\n        /* \"#utility.yul\":7549:7579   */\n      gt\n        /* \"#utility.yul\":7546:7663   */\n      iszero\n      tag_185\n      jumpi\n        /* \"#utility.yul\":7582:7661   */\n      tag_186\n      tag_91\n      jump\t// in\n    tag_186:\n        /* \"#utility.yul\":7546:7663   */\n    tag_185:\n        /* \"#utility.yul\":7687:7750   */\n      tag_187\n        /* \"#utility.yul\":7742:7749   */\n      dup6\n        /* \"#utility.yul\":7733:7739   */\n      dup3\n        /* \"#utility.yul\":7722:7731   */\n      dup7\n        /* \"#utility.yul\":7718:7740   */\n      add\n        /* \"#utility.yul\":7687:7750   */\n      tag_101\n      jump\t// in\n    tag_187:\n        /* \"#utility.yul\":7677:7750   */\n      swap2\n      pop\n        /* \"#utility.yul\":7472:7760   */\n      pop\n        /* \"#utility.yul\":7113:7767   */\n      swap3\n      pop\n      swap3\n      swap1\n      pop\n      jump\t// out\n        /* \"#utility.yul\":7773:8102   */\n    tag_17:\n        /* \"#utility.yul\":7832:7838   */\n      0x00\n        /* \"#utility.yul\":7881:7883   */\n      0x20\n        /* \"#utility.yul\":7869:7878   */\n      dup3\n        /* \"#utility.yul\":7860:7867   */\n      dup5\n        /* \"#utility.yul\":7856:7879   */\n      sub\n        /* \"#utility.yul\":7852:7884   */\n      slt\n        /* \"#utility.yul\":7849:7968   */\n      iszero\n      tag_189\n      jumpi\n        /* \"#utility.yul\":7887:7966   */\n      tag_190\n      tag_90\n      jump\t// in\n    tag_190:\n        /* \"#utility.yul\":7849:7968   */\n    tag_189:\n        /* \"#utility.yul\":8007:8008   */\n      0x00\n        /* \"#utility.yul\":8032:8085   */\n      tag_191\n        /* \"#utility.yul\":8077:8084   */\n      dup5\n        /* \"#utility.yul\":8068:8074   */\n      dup3\n        /* \"#utility.yul\":8057:8066   */\n      dup6\n        /* \"#utility.yul\":8053:8075   */\n      add\n        /* \"#utility.yul\":8032:8085   */\n      tag_93\n      jump\t// in\n    tag_191:\n        /* \"#utility.yul\":8022:8085   */\n      swap2\n      pop\n        /* \"#utility.yul\":7978:8095   */\n      pop\n        /* \"#utility.yul\":7773:8102   */\n      swap3\n      swap2\n      pop\n      pop\n      jump\t// out\n        /* \"#utility.yul\":8108:8226   */\n    tag_102:\n        /* \"#utility.yul\":8195:8219   */\n      tag_193\n        /* \"#utility.yul\":8213:8218   */\n      dup2\n        /* \"#utility.yul\":8195:8219   */\n      tag_78\n      jump\t// in\n    tag_193:\n        /* \"#utility.yul\":8190:8193   */\n      dup3\n        /* \"#utility.yul\":8183:8220   */\n      mstore\n        /* \"#utility.yul\":8108:8226   */\n      pop\n      pop\n      jump\t// out\n        /* \"#utility.yul\":8232:8401   */\n    tag_103:\n        /* \"#utility.yul\":8316:8327   */\n      0x00\n        /* \"#utility.yul\":8350:8356   */\n      dup3\n        /* \"#utility.yul\":8345:8348   */\n      dup3\n        /* \"#utility.yul\":8338:8357   */\n      mstore\n        /* \"#utility.yul\":8390:8394   */\n      0x20\n        /* \"#utility.yul\":8385:8388   */\n      dup3\n        /* \"#utility.yul\":8381:8395   */\n      add\n        /* \"#utility.yul\":8366:8395   */\n      swap1\n      pop\n        /* \"#utility.yul\":8232:8401   */\n      swap3\n      swap2\n      pop\n      pop\n      jump\t// out\n        /* \"#utility.yul\":8407:8771   */\n    tag_104:\n        /* \"#utility.yul\":8495:8498   */\n      0x00\n        /* \"#utility.yul\":8523:8562   */\n      tag_196\n        /* \"#utility.yul\":8556:8561   */\n      dup3\n        /* \"#utility.yul\":8523:8562   */\n      tag_80\n      jump\t// in\n    tag_196:\n        /* \"#utility.yul\":8578:8649   */\n      tag_197\n        /* \"#utility.yul\":8642:8648   */\n      dup2\n        /* \"#utility.yul\":8637:8640   */\n      dup6\n        /* \"#utility.yul\":8578:8649   */\n      tag_103\n      jump\t// in\n    tag_197:\n        /* \"#utility.yul\":8571:8649   */\n      swap4\n      pop\n        /* \"#utility.yul\":8658:8710   */\n      tag_198\n        /* \"#utility.yul\":8703:8709   */\n      dup2\n        /* \"#utility.yul\":8698:8701   */\n      dup6\n        /* \"#utility.yul\":8691:8695   */\n      0x20\n        /* \"#utility.yul\":8684:8689   */\n      dup7\n        /* \"#utility.yul\":8680:8696   */\n      add\n        /* \"#utility.yul\":8658:8710   */\n      tag_82\n      jump\t// in\n    tag_198:\n        /* \"#utility.yul\":8735:8764   */\n      tag_199\n        /* \"#utility.yul\":8757:8763   */\n      dup2\n        /* \"#utility.yul\":8735:8764   */\n      tag_83\n      jump\t// in\n    tag_199:\n        /* \"#utility.yul\":8730:8733   */\n      dup5\n        /* \"#utility.yul\":8726:8765   */\n      add\n        /* \"#utility.yul\":8719:8765   */\n      swap2\n      pop\n        /* \"#utility.yul\":8499:8771   */\n      pop\n        /* \"#utility.yul\":8407:8771   */\n      swap3\n      swap2\n      pop\n      pop\n      jump\t// out\n        /* \"#utility.yul\":8777:9200   */\n    tag_20:\n        /* \"#utility.yul\":8918:8922   */\n      0x00\n        /* \"#utility.yul\":8956:8958   */\n      0x40\n        /* \"#utility.yul\":8945:8954   */\n      dup3\n        /* \"#utility.yul\":8941:8959   */\n      add\n        /* \"#utility.yul\":8933:8959   */\n      swap1\n      pop\n        /* \"#utility.yul\":8969:9040   */\n      tag_201\n        /* \"#utility.yul\":9037:9038   */\n      0x00\n        /* \"#utility.yul\":9026:9035   */\n      dup4\n        /* \"#utility.yul\":9022:9039   */\n      add\n        /* \"#utility.yul\":9013:9019   */\n      dup6\n        /* \"#utility.yul\":8969:9040   */\n      tag_102\n      jump\t// in\n    tag_201:\n        /* \"#utility.yul\":9087:9096   */\n      dup2\n        /* \"#utility.yul\":9081:9085   */\n      dup2\n        /* \"#utility.yul\":9077:9097   */\n      sub\n        /* \"#utility.yul\":9072:9074   */\n      0x20\n        /* \"#utility.yul\":9061:9070   */\n      dup4\n        /* \"#utility.yul\":9057:9075   */\n      add\n        /* \"#utility.yul\":9050:9098   */\n      mstore\n        /* \"#utility.yul\":9115:9193   */\n      tag_202\n        /* \"#utility.yul\":9188:9192   */\n      dup2\n        /* \"#utility.yul\":9179:9185   */\n      dup5\n        /* \"#utility.yul\":9115:9193   */\n      tag_104\n      jump\t// in\n    tag_202:\n        /* \"#utility.yul\":9107:9193   */\n      swap1\n      pop\n        /* \"#utility.yul\":8777:9200   */\n      swap4\n      swap3\n      pop\n      pop\n      pop\n      jump\t// out\n        /* \"#utility.yul\":9206:9428   */\n    tag_24:\n        /* \"#utility.yul\":9299:9303   */\n      0x00\n        /* \"#utility.yul\":9337:9339   */\n      0x20\n        /* \"#utility.yul\":9326:9335   */\n      dup3\n        /* \"#utility.yul\":9322:9340   */\n      add\n        /* \"#utility.yul\":9314:9340   */\n      swap1\n      pop\n        /* \"#utility.yul\":9350:9421   */\n      tag_204\n        /* \"#utility.yul\":9418:9419   */\n      0x00\n        /* \"#utility.yul\":9407:9416   */\n      dup4\n        /* \"#utility.yul\":9403:9420   */\n      add\n        /* \"#utility.yul\":9394:9400   */\n      dup5\n        /* \"#utility.yul\":9350:9421   */\n      tag_102\n      jump\t// in\n    tag_204:\n        /* \"#utility.yul\":9206:9428   */\n      swap3\n      swap2\n      pop\n      pop\n      jump\t// out\n        /* \"#utility.yul\":9434:9614   */\n    tag_105:\n        /* \"#utility.yul\":9482:9559   */\n      0x4e487b7100000000000000000000000000000000000000000000000000000000\n        /* \"#utility.yul\":9479:9480   */\n      0x00\n        /* \"#utility.yul\":9472:9560   */\n      mstore\n        /* \"#utility.yul\":9579:9583   */\n      0x22\n        /* \"#utility.yul\":9576:9577   */\n      0x04\n        /* \"#utility.yul\":9569:9584   */\n      mstore\n        /* \"#utility.yul\":9603:9607   */\n      0x24\n        /* \"#utility.yul\":9600:9601   */\n      0x00\n        /* \"#utility.yul\":9593:9608   */\n      revert\n        /* \"#utility.yul\":9620:9940   */\n    tag_37:\n        /* \"#utility.yul\":9664:9670   */\n      0x00\n        /* \"#utility.yul\":9701:9702   */\n      0x02\n        /* \"#utility.yul\":9695:9699   */\n      dup3\n        /* \"#utility.yul\":9691:9703   */\n      div\n        /* \"#utility.yul\":9681:9703   */\n      swap1\n      pop\n        /* \"#utility.yul\":9748:9749   */\n      0x01\n        /* \"#utility.yul\":9742:9746   */\n      dup3\n        /* \"#utility.yul\":9738:9750   */\n      and\n        /* \"#utility.yul\":9769:9787   */\n      dup1\n        /* \"#utility.yul\":9759:9840   */\n      tag_207\n      jumpi\n        /* \"#utility.yul\":9825:9829   */\n      0x7f\n        /* \"#utility.yul\":9817:9823   */\n      dup3\n        /* \"#utility.yul\":9813:9830   */\n      and\n        /* \"#utility.yul\":9803:9830   */\n      swap2\n      pop\n        /* \"#utility.yul\":9759:9840   */\n    tag_207:\n        /* \"#utility.yul\":9887:9889   */\n      0x20\n        /* \"#utility.yul\":9879:9885   */\n      dup3\n        /* \"#utility.yul\":9876:9890   */\n      lt\n        /* \"#utility.yul\":9856:9874   */\n      dup2\n        /* \"#utility.yul\":9853:9891   */\n      eq\n        /* \"#utility.yul\":9850:9934   */\n      iszero\n      tag_208\n      jumpi\n        /* \"#utility.yul\":9906:9924   */\n      tag_209\n      tag_105\n      jump\t// in\n    tag_209:\n        /* \"#utility.yul\":9850:9934   */\n    tag_208:\n        /* \"#utility.yul\":9671:9940   */\n      pop\n        /* \"#utility.yul\":9620:9940   */\n      swap2\n      swap1\n      pop\n      jump\t// out\n        /* \"#utility.yul\":9946:10126   */\n    tag_106:\n        /* \"#utility.yul\":9994:10071   */\n      0x4e487b7100000000000000000000000000000000000000000000000000000000\n        /* \"#utility.yul\":9991:9992   */\n      0x00\n        /* \"#utility.yul\":9984:10072   */\n      mstore\n        /* \"#utility.yul\":10091:10095   */\n      0x11\n        /* \"#utility.yul\":10088:10089   */\n      0x04\n        /* \"#utility.yul\":10081:10096   */\n      mstore\n        /* \"#utility.yul\":10115:10119   */\n      0x24\n        /* \"#utility.yul\":10112:10113   */\n      0x00\n        /* \"#utility.yul\":10105:10120   */\n      revert\n        /* \"#utility.yul\":10132:10323   */\n    tag_43:\n        /* \"#utility.yul\":10172:10176   */\n      0x00\n        /* \"#utility.yul\":10192:10212   */\n      tag_212\n        /* \"#utility.yul\":10210:10211   */\n      dup3\n        /* \"#utility.yul\":10192:10212   */\n      tag_78\n      jump\t// in\n    tag_212:\n        /* \"#utility.yul\":10187:10212   */\n      swap2\n      pop\n        /* \"#utility.yul\":10226:10246   */\n      tag_213\n        /* \"#utility.yul\":10244:10245   */\n      dup4\n        /* \"#utility.yul\":10226:10246   */\n      tag_78\n      jump\t// in\n    tag_213:\n        /* \"#utility.yul\":10221:10246   */\n      swap3\n      pop\n        /* \"#utility.yul\":10265:10266   */\n      dup3\n        /* \"#utility.yul\":10262:10263   */\n      dup3\n        /* \"#utility.yul\":10259:10267   */\n      lt\n        /* \"#utility.yul\":10256:10290   */\n      iszero\n      tag_214\n      jumpi\n        /* \"#utility.yul\":10270:10288   */\n      tag_215\n      tag_106\n      jump\t// in\n    tag_215:\n        /* \"#utility.yul\":10256:10290   */\n    tag_214:\n        /* \"#utility.yul\":10315:10316   */\n      dup3\n        /* \"#utility.yul\":10312:10313   */\n      dup3\n        /* \"#utility.yul\":10308:10317   */\n      sub\n        /* \"#utility.yul\":10300:10317   */\n      swap1\n      pop\n        /* \"#utility.yul\":10132:10323   */\n      swap3\n      swap2\n      pop\n      pop\n      jump\t// out\n        /* \"#utility.yul\":10329:10509   */\n    tag_46:\n        /* \"#utility.yul\":10377:10454   */\n      0x4e487b7100000000000000000000000000000000000000000000000000000000\n        /* \"#utility.yul\":10374:10375   */\n      0x00\n        /* \"#utility.yul\":10367:10455   */\n      mstore\n        /* \"#utility.yul\":10474:10478   */\n      0x32\n        /* \"#utility.yul\":10471:10472   */\n      0x04\n        /* \"#utility.yul\":10464:10479   */\n      mstore\n        /* \"#utility.yul\":10498:10502   */\n      0x24\n        /* \"#utility.yul\":10495:10496   */\n      0x00\n        /* \"#utility.yul\":10488:10503   */\n      revert\n        /* \"#utility.yul\":10515:10748   */\n    tag_48:\n        /* \"#utility.yul\":10554:10557   */\n      0x00\n        /* \"#utility.yul\":10577:10601   */\n      tag_218\n        /* \"#utility.yul\":10595:10600   */\n      dup3\n        /* \"#utility.yul\":10577:10601   */\n      tag_78\n      jump\t// in\n    tag_218:\n        /* \"#utility.yul\":10568:10601   */\n      swap2\n      pop\n        /* \"#utility.yul\":10623:10689   */\n      0xffffffffffffffffffffffffffffffffffffffffffffffffffffffffffffffff\n        /* \"#utility.yul\":10616:10621   */\n      dup3\n        /* \"#utility.yul\":10613:10690   */\n      eq\n        /* \"#utility.yul\":10610:10713   */\n      iszero\n      tag_219\n      jumpi\n        /* \"#utility.yul\":10693:10711   */\n      tag_220\n      tag_106\n      jump\t// in\n    tag_220:\n        /* \"#utility.yul\":10610:10713   */\n    tag_219:\n        /* \"#utility.yul\":10740:10741   */\n      0x01\n        /* \"#utility.yul\":10733:10738   */\n      dup3\n        /* \"#utility.yul\":10729:10742   */\n      add\n        /* \"#utility.yul\":10722:10742   */\n      swap1\n      pop\n        /* \"#utility.yul\":10515:10748   */\n      swap2\n      swap1\n      pop\n      jump\t// out\n        /* \"#utility.yul\":10754:10977   */\n    tag_107:\n        /* \"#utility.yul\":10894:10928   */\n      0x4d657468616e65206c6576656c206d7573742062652067726561746572207468\n        /* \"#utility.yul\":10890:10891   */\n      0x00\n        /* \"#utility.yul\":10882:10888   */\n      dup3\n        /* \"#utility.yul\":10878:10892   */\n      add\n        /* \"#utility.yul\":10871:10929   */\n      mstore\n        /* \"#utility.yul\":10963:10969   */\n      0x616e203000000000000000000000000000000000000000000000000000000000\n        /* \"#utility.yul\":10958:10960   */\n      0x20\n        /* \"#utility.yul\":10950:10956   */\n      dup3\n        /* \"#utility.yul\":10946:10961   */\n      add\n        /* \"#utility.yul\":10939:10970   */\n      mstore\n        /* \"#utility.yul\":10754:10977   */\n      pop\n      jump\t// out\n        /* \"#utility.yul\":10983:11349   */\n    tag_108:\n        /* \"#utility.yul\":11125:11128   */\n      0x00\n        /* \"#utility.yul\":11146:11213   */\n      tag_223\n        /* \"#utility.yul\":11210:11212   */\n      0x24\n        /* \"#utility.yul\":11205:11208   */\n      dup4\n        /* \"#utility.yul\":11146:11213   */\n      tag_103\n      jump\t// in\n    tag_223:\n        /* \"#utility.yul\":11139:11213   */\n      swap2\n      pop\n        /* \"#utility.yul\":11222:11315   */\n      tag_224\n        /* \"#utility.yul\":11311:11314   */\n      dup3\n        /* \"#utility.yul\":11222:11315   */\n      tag_107\n      jump\t// in\n    tag_224:\n        /* \"#utility.yul\":11340:11342   */\n      0x40\n        /* \"#utility.yul\":11335:11338   */\n      dup3\n        /* \"#utility.yul\":11331:11343   */\n      add\n        /* \"#utility.yul\":11324:11343   */\n      swap1\n      pop\n        /* \"#utility.yul\":10983:11349   */\n      swap2\n      swap1\n      pop\n      jump\t// out\n        /* \"#utility.yul\":11355:11774   */\n    tag_52:\n        /* \"#utility.yul\":11521:11525   */\n      0x00\n        /* \"#utility.yul\":11559:11561   */\n      0x20\n        /* \"#utility.yul\":11548:11557   */\n      dup3\n        /* \"#utility.yul\":11544:11562   */\n      add\n        /* \"#utility.yul\":11536:11562   */\n      swap1\n      pop\n        /* \"#utility.yul\":11608:11617   */\n      dup2\n        /* \"#utility.yul\":11602:11606   */\n      dup2\n        /* \"#utility.yul\":11598:11618   */\n      sub\n        /* \"#utility.yul\":11594:11595   */\n      0x00\n        /* \"#utility.yul\":11583:11592   */\n      dup4\n        /* \"#utility.yul\":11579:11596   */\n      add\n        /* \"#utility.yul\":11572:11619   */\n      mstore\n        /* \"#utility.yul\":11636:11767   */\n      tag_226\n        /* \"#utility.yul\":11762:11766   */\n      dup2\n        /* \"#utility.yul\":11636:11767   */\n      tag_108\n      jump\t// in\n    tag_226:\n        /* \"#utility.yul\":11628:11767   */\n      swap1\n      pop\n        /* \"#utility.yul\":11355:11774   */\n      swap2\n      swap1\n      pop\n      jump\t// out\n        /* \"#utility.yul\":11780:11956   */\n    tag_109:\n        /* \"#utility.yul\":11920:11948   */\n      0x54696d657374616d70206d7573742062652070726f7669646564000000000000\n        /* \"#utility.yul\":11916:11917   */\n      0x00\n        /* \"#utility.yul\":11908:11914   */\n      dup3\n        /* \"#utility.yul\":11904:11918   */\n      add\n        /* \"#utility.yul\":11897:11949   */\n      mstore\n        /* \"#utility.yul\":11780:11956   */\n      pop\n      jump\t// out\n        /* \"#utility.yul\":11962:12328   */\n    tag_110:\n        /* \"#utility.yul\":12104:12107   */\n      0x00\n        /* \"#utility.yul\":12125:12192   */\n      tag_229\n        /* \"#utility.yul\":12189:12191   */\n      0x1a\n        /* \"#utility.yul\":12184:12187   */\n      dup4\n        /* \"#utility.yul\":12125:12192   */\n      tag_103\n      jump\t// in\n    tag_229:\n        /* \"#utility.yul\":12118:12192   */\n      swap2\n      pop\n        /* \"#utility.yul\":12201:12294   */\n      tag_230\n        /* \"#utility.yul\":12290:12293   */\n      dup3\n        /* \"#utility.yul\":12201:12294   */\n      tag_109\n      jump\t// in\n    tag_230:\n        /* \"#utility.yul\":12319:12321   */\n      0x20\n        /* \"#utility.yul\":12314:12317   */\n      dup3\n        /* \"#utility.yul\":12310:12322   */\n      add\n        /* \"#utility.yul\":12303:12322   */\n      swap1\n      pop\n        /* \"#utility.yul\":11962:12328   */\n      swap2\n      swap1\n      pop\n      jump\t// out\n        /* \"#utility.yul\":12334:12753   */\n    tag_55:\n        /* \"#utility.yul\":12500:12504   */\n      0x00\n        /* \"#utility.yul\":12538:12540   */\n      0x20\n        /* \"#utility.yul\":12527:12536   */\n      dup3\n        /* \"#utility.yul\":12523:12541   */\n      add\n        /* \"#utility.yul\":12515:12541   */\n      swap1\n      pop\n        /* \"#utility.yul\":12587:12596   */\n      dup2\n        /* \"#utility.yul\":12581:12585   */\n      dup2\n        /* \"#utility.yul\":12577:12597   */\n      sub\n        /* \"#utility.yul\":12573:12574   */\n      0x00\n        /* \"#utility.yul\":12562:12571   */\n      dup4\n        /* \"#utility.yul\":12558:12575   */\n      add\n        /* \"#utility.yul\":12551:12598   */\n      mstore\n        /* \"#utility.yul\":12615:12746   */\n      tag_232\n        /* \"#utility.yul\":12741:12745   */\n      dup2\n        /* \"#utility.yul\":12615:12746   */\n      tag_110\n      jump\t// in\n    tag_232:\n        /* \"#utility.yul\":12607:12746   */\n      swap1\n      pop\n        /* \"#utility.yul\":12334:12753   */\n      swap2\n      swap1\n      pop\n      jump\t// out\n\n    auxdata: 0xa2646970667358221220382407b82d60940634a4b5770905e10da028134371a11894fd68f709811aabae64736f6c634300080a0033\n}\n",
    "bytecode": {
      "linkReferences": {},
      "object": "608060405234801561001057600080fd5b50610bca806100206000396000f3fe608060405234801561001057600080fd5b506004361061004c5760003560e01c806367e4ac2c14610051578063cbcfe3ca1461006f578063cf35bdd01461008b578063eafe7a74146100bc575b600080fd5b6100596100da565b6040516100669190610696565b60405180910390f35b6100896004803603810190610084919061082d565b610244565b005b6100a560048036038101906100a09190610889565b610376565b6040516100b392919061090f565b60405180910390f35b6100c4610422565b6040516100d1919061093f565b60405180910390f35b6060600060015467ffffffffffffffff8111156100fa576100f9610702565b5b60405190808252806020026020018201604052801561013357816020015b610120610428565b8152602001906001900390816101185790505b5090506000600190505b600154811161023c576000808281526020019081526020016000206040518060400160405290816000820154815260200160018201805461017d90610989565b80601f01602080910402602001604051908101604052809291908181526020018280546101a990610989565b80156101f65780601f106101cb576101008083540402835291602001916101f6565b820191906000526020600020905b8154815290600101906020018083116101d957829003601f168201915b5050505050815250508260018361020d91906109ea565b8151811061021e5761021d610a1e565b5b6020026020010181905250808061023490610a4d565b91505061013d565b508091505090565b60008211610287576040517f08c379a000000000000000000000000000000000000000000000000000000000815260040161027e90610b08565b60405180910390fd5b60008151116102cb576040517f08c379a00000000000000000000000000000000000000000000000000000000081526004016102c290610b74565b60405180910390fd5b600160008154809291906102de90610a4d565b91905055506040518060400160405280838152602001828152506000806001548152602001908152602001600020600082015181600001556020820151816001019080519060200190610332929190610442565b509050506001547ff9caf9c3c6728ca3e890634a3ba8e865312961a85071a2a9659d0b7c3b9d2155838360405161036a92919061090f565b60405180910390a25050565b600060205280600052604060002060009150905080600001549080600101805461039f90610989565b80601f01602080910402602001604051908101604052809291908181526020018280546103cb90610989565b80156104185780601f106103ed57610100808354040283529160200191610418565b820191906000526020600020905b8154815290600101906020018083116103fb57829003601f168201915b5050505050905082565b60015481565b604051806040016040528060008152602001606081525090565b82805461044e90610989565b90600052602060002090601f01602090048101928261047057600085556104b7565b82601f1061048957805160ff19168380011785556104b7565b828001600101855582156104b7579182015b828111156104b657825182559160200191906001019061049b565b5b5090506104c491906104c8565b5090565b5b808211156104e15760008160009055506001016104c9565b5090565b600081519050919050565b600082825260208201905092915050565b6000819050602082019050919050565b6000819050919050565b61052481610511565b82525050565b600081519050919050565b600082825260208201905092915050565b60005b83811015610564578082015181840152602081019050610549565b83811115610573576000848401525b50505050565b6000601f19601f8301169050919050565b60006105958261052a565b61059f8185610535565b93506105af818560208601610546565b6105b881610579565b840191505092915050565b60006040830160008301516105db600086018261051b565b50602083015184820360208601526105f3828261058a565b9150508091505092915050565b600061060c83836105c3565b905092915050565b6000602082019050919050565b600061062c826104e5565b61063681856104f0565b93508360208202850161064885610501565b8060005b8581101561068457848403895281516106658582610600565b945061067083610614565b925060208a0199505060018101905061064c565b50829750879550505050505092915050565b600060208201905081810360008301526106b08184610621565b905092915050565b6000604051905090565b600080fd5b600080fd5b6106d581610511565b81146106e057600080fd5b50565b6000813590506106f2816106cc565b92915050565b600080fd5b600080fd5b7f4e487b7100000000000000000000000000000000000000000000000000000000600052604160045260246000fd5b61073a82610579565b810181811067ffffffffffffffff8211171561075957610758610702565b5b80604052505050565b600061076c6106b8565b90506107788282610731565b919050565b600067ffffffffffffffff82111561079857610797610702565b5b6107a182610579565b9050602081019050919050565b82818337600083830152505050565b60006107d06107cb8461077d565b610762565b9050828152602081018484840111156107ec576107eb6106fd565b5b6107f78482856107ae565b509392505050565b600082601f830112610814576108136106f8565b5b81356108248482602086016107bd565b91505092915050565b60008060408385031215610844576108436106c2565b5b6000610852858286016106e3565b925050602083013567ffffffffffffffff811115610873576108726106c7565b5b61087f858286016107ff565b9150509250929050565b60006020828403121561089f5761089e6106c2565b5b60006108ad848285016106e3565b91505092915050565b6108bf81610511565b82525050565b600082825260208201905092915050565b60006108e18261052a565b6108eb81856108c5565b93506108fb818560208601610546565b61090481610579565b840191505092915050565b600060408201905061092460008301856108b6565b818103602083015261093681846108d6565b90509392505050565b600060208201905061095460008301846108b6565b92915050565b7f4e487b7100000000000000000000000000000000000000000000000000000000600052602260045260246000fd5b600060028204905060018216806109a157607f821691505b602082108114156109b5576109b461095a565b5b50919050565b7f4e487b7100000000000000000000000000000000000000000000000000000000600052601160045260246000fd5b60006109f582610511565b9150610a0083610511565b925082821015610a1357610a126109bb565b5b828203905092915050565b7f4e487b7100000000000000000000000000000000000000000000000000000000600052603260045260246000fd5b6000610a5882610511565b91507fffffffffffffffffffffffffffffffffffffffffffffffffffffffffffffffff821415610a8b57610a8a6109bb565b5b600182019050919050565b7f4d657468616e65206c6576656c206d757374206265206772656174657220746860008201527f616e203000000000000000000000000000000000000000000000000000000000602082015250565b6000610af26024836108c5565b9150610afd82610a96565b604082019050919050565b60006020820190508181036000830152610b2181610ae5565b9050919050565b7f54696d657374616d70206d7573742062652070726f7669646564000000000000600082015250565b6000610b5e601a836108c5565b9150610b6982610b28565b602082019050919050565b60006020820190508181036000830152610b8d81610b51565b905091905056fea2646970667358221220382407b82d60940634a4b5770905e10da028134371a11894fd68f709811aabae64736f6c634300080a0033",
      "opcodes": "PUSH1 0x80 PUSH1 0x40 MSTORE CALLVALUE DUP1 ISZERO PUSH2 0x10 JUMPI PUSH1 0x0 DUP1 REVERT JUMPDEST POP PUSH2 0xBCA DUP1 PUSH2 0x20 PUSH1 0x0 CODECOPY PUSH1 0x0 RETURN INVALID PUSH1 0x80 PUSH1 0x40 MSTORE CALLVALUE DUP1 ISZERO PUSH2 0x10 JUMPI PUSH1 0x0 DUP1 REVERT JUMPDEST POP PUSH1 0x4 CALLDATASIZE LT PUSH2 0x4C JUMPI PUSH1 0x0 CALLDATALOAD PUSH1 0xE0 SHR DUP1 PUSH4 0x67E4AC2C EQ PUSH2 0x51 JUMPI DUP1 PUSH4 0xCBCFE3CA EQ PUSH2 0x6F JUMPI DUP1 PUSH4 0xCF35BDD0 EQ PUSH2 0x8B JUMPI DUP1 PUSH4 0xEAFE7A74 EQ PUSH2 0xBC JUMPI JUMPDEST PUSH1 0x0 DUP1 REVERT JUMPDEST PUSH2 0x59 PUSH2 0xDA JUMP JUMPDEST PUSH1 0x40 MLOAD PUSH2 0x66 SWAP2 SWAP1 PUSH2 0x696 JUMP JUMPDEST PUSH1 0x40 MLOAD DUP1 SWAP2 SUB SWAP1 RETURN JUMPDEST PUSH2 0x89 PUSH1 0x4 DUP1 CALLDATASIZE SUB DUP2 ADD SWAP1 PUSH2 0x84 SWAP2 SWAP1 PUSH2 0x82D JUMP JUMPDEST PUSH2 0x244 JUMP JUMPDEST STOP JUMPDEST PUSH2 0xA5 PUSH1 0x4 DUP1 CALLDATASIZE SUB DUP2 ADD SWAP1 PUSH2 0xA0 SWAP2 SWAP1 PUSH2 0x889 JUMP JUMPDEST PUSH2 0x376 JUMP JUMPDEST PUSH1 0x40 MLOAD PUSH2 0xB3 SWAP3 SWAP2 SWAP1 PUSH2 0x90F JUMP JUMPDEST PUSH1 0x40 MLOAD DUP1 SWAP2 SUB SWAP1 RETURN JUMPDEST PUSH2 0xC4 PUSH2 0x422 JUMP JUMPDEST PUSH1 0x40 MLOAD PUSH2 0xD1 SWAP2 SWAP1 PUSH2 0x93F JUMP JUMPDEST PUSH1 0x40 MLOAD DUP1 SWAP2 SUB SWAP1 RETURN JUMPDEST PUSH1 0x60 PUSH1 0x0 PUSH1 0x1 SLOAD PUSH8 0xFFFFFFFFFFFFFFFF DUP2 GT ISZERO PUSH2 0xFA JUMPI PUSH2 0xF9 PUSH2 0x702 JUMP JUMPDEST JUMPDEST PUSH1 0x40 MLOAD SWAP1 DUP1 DUP3 MSTORE DUP1 PUSH1 0x20 MUL PUSH1 0x20 ADD DUP3 ADD PUSH1 0x40 MSTORE DUP1 ISZERO PUSH2 0x133 JUMPI DUP2 PUSH1 0x20 ADD JUMPDEST PUSH2 0x120 PUSH2 0x428 JUMP JUMPDEST DUP2 MSTORE PUSH1 0x20 ADD SWAP1 PUSH1 0x1 SWAP1 SUB SWAP1 DUP2 PUSH2 0x118 JUMPI SWAP1 POP JUMPDEST POP SWAP1 POP PUSH1 0x0 PUSH1 0x1 SWAP1 POP JUMPDEST PUSH1 0x1 SLOAD DUP2 GT PUSH2 0x23C JUMPI PUSH1 0x0 DUP1 DUP3 DUP2 MSTORE PUSH1 0x20 ADD SWAP1 DUP2 MSTORE PUSH1 0x20 ADD PUSH1 0x0 KECCAK256 PUSH1 0x40 MLOAD DUP1 PUSH1 0x40 ADD PUSH1 0x40 MSTORE SWAP1 DUP2 PUSH1 0x0 DUP3 ADD SLOAD DUP2 MSTORE PUSH1 0x20 ADD PUSH1 0x1 DUP3 ADD DUP1 SLOAD PUSH2 0x17D SWAP1 PUSH2 0x989 JUMP JUMPDEST DUP1 PUSH1 0x1F ADD PUSH1 0x20 DUP1 SWAP2 DIV MUL PUSH1 0x20 ADD PUSH1 0x40 MLOAD SWAP1 DUP2 ADD PUSH1 0x40 MSTORE DUP1 SWAP3 SWAP2 SWAP1 DUP2 DUP2 MSTORE PUSH1 0x20 ADD DUP3 DUP1 SLOAD PUSH2 0x1A9 SWAP1 PUSH2 0x989 JUMP JUMPDEST DUP1 ISZERO PUSH2 0x1F6 JUMPI DUP1 PUSH1 0x1F LT PUSH2 0x1CB JUMPI PUSH2 0x100 DUP1 DUP4 SLOAD DIV MUL DUP4 MSTORE SWAP2 PUSH1 0x20 ADD SWAP2 PUSH2 0x1F6 JUMP JUMPDEST DUP3 ADD SWAP2 SWAP1 PUSH1 0x0 MSTORE PUSH1 0x20 PUSH1 0x0 KECCAK256 SWAP1 JUMPDEST DUP2 SLOAD DUP2 MSTORE SWAP1 PUSH1 0x1 ADD SWAP1 PUSH1 0x20 ADD DUP1 DUP4 GT PUSH2 0x1D9 JUMPI DUP3 SWAP1 SUB PUSH1 0x1F AND DUP3 ADD SWAP2 JUMPDEST POP POP POP POP POP DUP2 MSTORE POP POP DUP3 PUSH1 0x1 DUP4 PUSH2 0x20D SWAP2 SWAP1 PUSH2 0x9EA JUMP JUMPDEST DUP2 MLOAD DUP2 LT PUSH2 0x21E JUMPI PUSH2 0x21D PUSH2 0xA1E JUMP JUMPDEST JUMPDEST PUSH1 0x20 MUL PUSH1 0x20 ADD ADD DUP2 SWAP1 MSTORE POP DUP1 DUP1 PUSH2 0x234 SWAP1 PUSH2 0xA4D JUMP JUMPDEST SWAP2 POP POP PUSH2 0x13D JUMP JUMPDEST POP DUP1 SWAP2 POP POP SWAP1 JUMP JUMPDEST PUSH1 0x0 DUP3 GT PUSH2 0x287 JUMPI PUSH1 0x40 MLOAD PUSH32 0x8C379A000000000000000000000000000000000000000000000000000000000 DUP2 MSTORE PUSH1 0x4 ADD PUSH2 0x27E SWAP1 PUSH2 0xB08 JUMP JUMPDEST PUSH1 0x40 MLOAD DUP1 SWAP2 SUB SWAP1 REVERT JUMPDEST PUSH1 0x0 DUP2 MLOAD GT PUSH2 0x2CB JUMPI PUSH1 0x40 MLOAD PUSH32 0x8C379A000000000000000000000000000000000000000000000000000000000 DUP2 MSTORE PUSH1 0x4 ADD PUSH2 0x2C2 SWAP1 PUSH2 0xB74 JUMP JUMPDEST PUSH1 0x40 MLOAD DUP1 SWAP2 SUB SWAP1 REVERT JUMPDEST PUSH1 0x1 PUSH1 0x0 DUP2 SLOAD DUP1 SWAP3 SWAP2 SWAP1 PUSH2 0x2DE SWAP1 PUSH2 0xA4D JUMP JUMPDEST SWAP2 SWAP1 POP SSTORE POP PUSH1 0x40 MLOAD DUP1 PUSH1 0x40 ADD PUSH1 0x40 MSTORE DUP1 DUP4 DUP2 MSTORE PUSH1 0x20 ADD DUP3 DUP2 MSTORE POP PUSH1 0x0 DUP1 PUSH1 0x1 SLOAD DUP2 MSTORE PUSH1 0x20 ADD SWAP1 DUP2 MSTORE PUSH1 0x20 ADD PUSH1 0x0 KECCAK256 PUSH1 0x0 DUP3 ADD MLOAD DUP2 PUSH1 0x0 ADD SSTORE PUSH1 0x20 DUP3 ADD MLOAD DUP2 PUSH1 0x1 ADD SWAP1 DUP1 MLOAD SWAP1 PUSH1 0x20 ADD SWAP1 PUSH2 0x332 SWAP3 SWAP2 SWAP1 PUSH2 0x442 JUMP JUMPDEST POP SWAP1 POP POP PUSH1 0x1 SLOAD PUSH32 0xF9CAF9C3C6728CA3E890634A3BA8E865312961A85071A2A9659D0B7C3B9D2155 DUP4 DUP4 PUSH1 0x40 MLOAD PUSH2 0x36A SWAP3 SWAP2 SWAP1 PUSH2 0x90F JUMP JUMPDEST PUSH1 0x40 MLOAD DUP1 SWAP2 SUB SWAP1 LOG2 POP POP JUMP JUMPDEST PUSH1 0x0 PUSH1 0x20 MSTORE DUP1 PUSH1 0x0 MSTORE PUSH1 0x40 PUSH1 0x0 KECCAK256 PUSH1 0x0 SWAP2 POP SWAP1 POP DUP1 PUSH1 0x0 ADD SLOAD SWAP1 DUP1 PUSH1 0x1 ADD DUP1 SLOAD PUSH2 0x39F SWAP1 PUSH2 0x989 JUMP JUMPDEST DUP1 PUSH1 0x1F ADD PUSH1 0x20 DUP1 SWAP2 DIV MUL PUSH1 0x20 ADD PUSH1 0x40 MLOAD SWAP1 DUP2 ADD PUSH1 0x40 MSTORE DUP1 SWAP3 SWAP2 SWAP1 DUP2 DUP2 MSTORE PUSH1 0x20 ADD DUP3 DUP1 SLOAD PUSH2 0x3CB SWAP1 PUSH2 0x989 JUMP JUMPDEST DUP1 ISZERO PUSH2 0x418 JUMPI DUP1 PUSH1 0x1F LT PUSH2 0x3ED JUMPI PUSH2 0x100 DUP1 DUP4 SLOAD DIV MUL DUP4 MSTORE SWAP2 PUSH1 0x20 ADD SWAP2 PUSH2 0x418 JUMP JUMPDEST DUP3 ADD SWAP2 SWAP1 PUSH1 0x0 MSTORE PUSH1 0x20 PUSH1 0x0 KECCAK256 SWAP1 JUMPDEST DUP2 SLOAD DUP2 MSTORE SWAP1 PUSH1 0x1 ADD SWAP1 PUSH1 0x20 ADD DUP1 DUP4 GT PUSH2 0x3FB JUMPI DUP3 SWAP1 SUB PUSH1 0x1F AND DUP3 ADD SWAP2 JUMPDEST POP POP POP POP POP SWAP1 POP DUP3 JUMP JUMPDEST PUSH1 0x1 SLOAD DUP2 JUMP JUMPDEST PUSH1 0x40 MLOAD DUP1 PUSH1 0x40 ADD PUSH1 0x40 MSTORE DUP1 PUSH1 0x0 DUP2 MSTORE PUSH1 0x20 ADD PUSH1 0x60 DUP2 MSTORE POP SWAP1 JUMP JUMPDEST DUP3 DUP1 SLOAD PUSH2 0x44E SWAP1 PUSH2 0x989 JUMP JUMPDEST SWAP1 PUSH1 0x0 MSTORE PUSH1 0x20 PUSH1 0x0 KECCAK256 SWAP1 PUSH1 0x1F ADD PUSH1 0x20 SWAP1 DIV DUP2 ADD SWAP3 DUP3 PUSH2 0x470 JUMPI PUSH1 0x0 DUP6 SSTORE PUSH2 0x4B7 JUMP JUMPDEST DUP3 PUSH1 0x1F LT PUSH2 0x489 JUMPI DUP1 MLOAD PUSH1 0xFF NOT AND DUP4 DUP1 ADD OR DUP6 SSTORE PUSH2 0x4B7 JUMP JUMPDEST DUP3 DUP1 ADD PUSH1 0x1 ADD DUP6 SSTORE DUP3 ISZERO PUSH2 0x4B7 JUMPI SWAP2 DUP3 ADD JUMPDEST DUP3 DUP2 GT ISZERO PUSH2 0x4B6 JUMPI DUP3 MLOAD DUP3 SSTORE SWAP2 PUSH1 0x20 ADD SWAP2 SWAP1 PUSH1 0x1 ADD SWAP1 PUSH2 0x49B JUMP JUMPDEST JUMPDEST POP SWAP1 POP PUSH2 0x4C4 SWAP2 SWAP1 PUSH2 0x4C8 JUMP JUMPDEST POP SWAP1 JUMP JUMPDEST JUMPDEST DUP1 DUP3 GT ISZERO PUSH2 0x4E1 JUMPI PUSH1 0x0 DUP2 PUSH1 0x0 SWAP1 SSTORE POP PUSH1 0x1 ADD PUSH2 0x4C9 JUMP JUMPDEST POP SWAP1 JUMP JUMPDEST PUSH1 0x0 DUP2 MLOAD SWAP1 POP SWAP2 SWAP1 POP JUMP JUMPDEST PUSH1 0x0 DUP3 DUP3 MSTORE PUSH1 0x20 DUP3 ADD SWAP1 POP SWAP3 SWAP2 POP POP JUMP JUMPDEST PUSH1 0x0 DUP2 SWAP1 POP PUSH1 0x20 DUP3 ADD SWAP1 POP SWAP2 SWAP1 POP JUMP JUMPDEST PUSH1 0x0 DUP2 SWAP1 POP SWAP2 SWAP1 POP JUMP JUMPDEST PUSH2 0x524 DUP2 PUSH2 0x511 JUMP JUMPDEST DUP3 MSTORE POP POP JUMP JUMPDEST PUSH1 0x0 DUP2 MLOAD SWAP1 POP SWAP2 SWAP1 POP JUMP JUMPDEST PUSH1 0x0 DUP3 DUP3 MSTORE PUSH1 0x20 DUP3 ADD SWAP1 POP SWAP3 SWAP2 POP POP JUMP JUMPDEST PUSH1 0x0 JUMPDEST DUP4 DUP2 LT ISZERO PUSH2 0x564 JUMPI DUP1 DUP3 ADD MLOAD DUP2 DUP5 ADD MSTORE PUSH1 0x20 DUP2 ADD SWAP1 POP PUSH2 0x549 JUMP JUMPDEST DUP4 DUP2 GT ISZERO PUSH2 0x573 JUMPI PUSH1 0x0 DUP5 DUP5 ADD MSTORE JUMPDEST POP POP POP POP JUMP JUMPDEST PUSH1 0x0 PUSH1 0x1F NOT PUSH1 0x1F DUP4 ADD AND SWAP1 POP SWAP2 SWAP1 POP JUMP JUMPDEST PUSH1 0x0 PUSH2 0x595 DUP3 PUSH2 0x52A JUMP JUMPDEST PUSH2 0x59F DUP2 DUP6 PUSH2 0x535 JUMP JUMPDEST SWAP4 POP PUSH2 0x5AF DUP2 DUP6 PUSH1 0x20 DUP7 ADD PUSH2 0x546 JUMP JUMPDEST PUSH2 0x5B8 DUP2 PUSH2 0x579 JUMP JUMPDEST DUP5 ADD SWAP2 POP POP SWAP3 SWAP2 POP POP JUMP JUMPDEST PUSH1 0x0 PUSH1 0x40 DUP4 ADD PUSH1 0x0 DUP4 ADD MLOAD PUSH2 0x5DB PUSH1 0x0 DUP7 ADD DUP3 PUSH2 0x51B JUMP JUMPDEST POP PUSH1 0x20 DUP4 ADD MLOAD DUP5 DUP3 SUB PUSH1 0x20 DUP7 ADD MSTORE PUSH2 0x5F3 DUP3 DUP3 PUSH2 0x58A JUMP JUMPDEST SWAP2 POP POP DUP1 SWAP2 POP POP SWAP3 SWAP2 POP POP JUMP JUMPDEST PUSH1 0x0 PUSH2 0x60C DUP4 DUP4 PUSH2 0x5C3 JUMP JUMPDEST SWAP1 POP SWAP3 SWAP2 POP POP JUMP JUMPDEST PUSH1 0x0 PUSH1 0x20 DUP3 ADD SWAP1 POP SWAP2 SWAP1 POP JUMP JUMPDEST PUSH1 0x0 PUSH2 0x62C DUP3 PUSH2 0x4E5 JUMP JUMPDEST PUSH2 0x636 DUP2 DUP6 PUSH2 0x4F0 JUMP JUMPDEST SWAP4 POP DUP4 PUSH1 0x20 DUP3 MUL DUP6 ADD PUSH2 0x648 DUP6 PUSH2 0x501 JUMP JUMPDEST DUP1 PUSH1 0x0 JUMPDEST DUP6 DUP2 LT ISZERO PUSH2 0x684 JUMPI DUP5 DUP5 SUB DUP10 MSTORE DUP2 MLOAD PUSH2 0x665 DUP6 DUP3 PUSH2 0x600 JUMP JUMPDEST SWAP5 POP PUSH2 0x670 DUP4 PUSH2 0x614 JUMP JUMPDEST SWAP3 POP PUSH1 0x20 DUP11 ADD SWAP10 POP POP PUSH1 0x1 DUP2 ADD SWAP1 POP PUSH2 0x64C JUMP JUMPDEST POP DUP3 SWAP8 POP DUP8 SWAP6 POP POP POP POP POP POP SWAP3 SWAP2 POP POP JUMP JUMPDEST PUSH1 0x0 PUSH1 0x20 DUP3 ADD SWAP1 POP DUP2 DUP2 SUB PUSH1 0x0 DUP4 ADD MSTORE PUSH2 0x6B0 DUP2 DUP5 PUSH2 0x621 JUMP JUMPDEST SWAP1 POP SWAP3 SWAP2 POP POP JUMP JUMPDEST PUSH1 0x0 PUSH1 0x40 MLOAD SWAP1 POP SWAP1 JUMP JUMPDEST PUSH1 0x0 DUP1 REVERT JUMPDEST PUSH1 0x0 DUP1 REVERT JUMPDEST PUSH2 0x6D5 DUP2 PUSH2 0x511 JUMP JUMPDEST DUP2 EQ PUSH2 0x6E0 JUMPI PUSH1 0x0 DUP1 REVERT JUMPDEST POP JUMP JUMPDEST PUSH1 0x0 DUP2 CALLDATALOAD SWAP1 POP PUSH2 0x6F2 DUP2 PUSH2 0x6CC JUMP JUMPDEST SWAP3 SWAP2 POP POP JUMP JUMPDEST PUSH1 0x0 DUP1 REVERT JUMPDEST PUSH1 0x0 DUP1 REVERT JUMPDEST PUSH32 0x4E487B7100000000000000000000000000000000000000000000000000000000 PUSH1 0x0 MSTORE PUSH1 0x41 PUSH1 0x4 MSTORE PUSH1 0x24 PUSH1 0x0 REVERT JUMPDEST PUSH2 0x73A DUP3 PUSH2 0x579 JUMP JUMPDEST DUP2 ADD DUP2 DUP2 LT PUSH8 0xFFFFFFFFFFFFFFFF DUP3 GT OR ISZERO PUSH2 0x759 JUMPI PUSH2 0x758 PUSH2 0x702 JUMP JUMPDEST JUMPDEST DUP1 PUSH1 0x40 MSTORE POP POP POP JUMP JUMPDEST PUSH1 0x0 PUSH2 0x76C PUSH2 0x6B8 JUMP JUMPDEST SWAP1 POP PUSH2 0x778 DUP3 DUP3 PUSH2 0x731 JUMP JUMPDEST SWAP2 SWAP1 POP JUMP JUMPDEST PUSH1 0x0 PUSH8 0xFFFFFFFFFFFFFFFF DUP3 GT ISZERO PUSH2 0x798 JUMPI PUSH2 0x797 PUSH2 0x702 JUMP JUMPDEST JUMPDEST PUSH2 0x7A1 DUP3 PUSH2 0x579 JUMP JUMPDEST SWAP1 POP PUSH1 0x20 DUP2 ADD SWAP1 POP SWAP2 SWAP1 POP JUMP JUMPDEST DUP3 DUP2 DUP4 CALLDATACOPY PUSH1 0x0 DUP4 DUP4 ADD MSTORE POP POP POP JUMP JUMPDEST PUSH1 0x0 PUSH2 0x7D0 PUSH2 0x7CB DUP5 PUSH2 0x77D JUMP JUMPDEST PUSH2 0x762 JUMP JUMPDEST SWAP1 POP DUP3 DUP2 MSTORE PUSH1 0x20 DUP2 ADD DUP5 DUP5 DUP5 ADD GT ISZERO PUSH2 0x7EC JUMPI PUSH2 0x7EB PUSH2 0x6FD JUMP JUMPDEST JUMPDEST PUSH2 0x7F7 DUP5 DUP3 DUP6 PUSH2 0x7AE JUMP JUMPDEST POP SWAP4 SWAP3 POP POP POP JUMP JUMPDEST PUSH1 0x0 DUP3 PUSH1 0x1F DUP4 ADD SLT PUSH2 0x814 JUMPI PUSH2 0x813 PUSH2 0x6F8 JUMP JUMPDEST JUMPDEST DUP2 CALLDATALOAD PUSH2 0x824 DUP5 DUP3 PUSH1 0x20 DUP7 ADD PUSH2 0x7BD JUMP JUMPDEST SWAP2 POP POP SWAP3 SWAP2 POP POP JUMP JUMPDEST PUSH1 0x0 DUP1 PUSH1 0x40 DUP4 DUP6 SUB SLT ISZERO PUSH2 0x844 JUMPI PUSH2 0x843 PUSH2 0x6C2 JUMP JUMPDEST JUMPDEST PUSH1 0x0 PUSH2 0x852 DUP6 DUP3 DUP7 ADD PUSH2 0x6E3 JUMP JUMPDEST SWAP3 POP POP PUSH1 0x20 DUP4 ADD CALLDATALOAD PUSH8 0xFFFFFFFFFFFFFFFF DUP2 GT ISZERO PUSH2 0x873 JUMPI PUSH2 0x872 PUSH2 0x6C7 JUMP JUMPDEST JUMPDEST PUSH2 0x87F DUP6 DUP3 DUP7 ADD PUSH2 0x7FF JUMP JUMPDEST SWAP2 POP POP SWAP3 POP SWAP3 SWAP1 POP JUMP JUMPDEST PUSH1 0x0 PUSH1 0x20 DUP3 DUP5 SUB SLT ISZERO PUSH2 0x89F JUMPI PUSH2 0x89E PUSH2 0x6C2 JUMP JUMPDEST JUMPDEST PUSH1 0x0 PUSH2 0x8AD DUP5 DUP3 DUP6 ADD PUSH2 0x6E3 JUMP JUMPDEST SWAP2 POP POP SWAP3 SWAP2 POP POP JUMP JUMPDEST PUSH2 0x8BF DUP2 PUSH2 0x511 JUMP JUMPDEST DUP3 MSTORE POP POP JUMP JUMPDEST PUSH1 0x0 DUP3 DUP3 MSTORE PUSH1 0x20 DUP3 ADD SWAP1 POP SWAP3 SWAP2 POP POP JUMP JUMPDEST PUSH1 0x0 PUSH2 0x8E1 DUP3 PUSH2 0x52A JUMP JUMPDEST PUSH2 0x8EB DUP2 DUP6 PUSH2 0x8C5 JUMP JUMPDEST SWAP4 POP PUSH2 0x8FB DUP2 DUP6 PUSH1 0x20 DUP7 ADD PUSH2 0x546 JUMP JUMPDEST PUSH2 0x904 DUP2 PUSH2 0x579 JUMP JUMPDEST DUP5 ADD SWAP2 POP POP SWAP3 SWAP2 POP POP JUMP JUMPDEST PUSH1 0x0 PUSH1 0x40 DUP3 ADD SWAP1 POP PUSH2 0x924 PUSH1 0x0 DUP4 ADD DUP6 PUSH2 0x8B6 JUMP JUMPDEST DUP2 DUP2 SUB PUSH1 0x20 DUP4 ADD MSTORE PUSH2 0x936 DUP2 DUP5 PUSH2 0x8D6 JUMP JUMPDEST SWAP1 POP SWAP4 SWAP3 POP POP POP JUMP JUMPDEST PUSH1 0x0 PUSH1 0x20 DUP3 ADD SWAP1 POP PUSH2 0x954 PUSH1 0x0 DUP4 ADD DUP5 PUSH2 0x8B6 JUMP JUMPDEST SWAP3 SWAP2 POP POP JUMP JUMPDEST PUSH32 0x4E487B7100000000000000000000000000000000000000000000000000000000 PUSH1 0x0 MSTORE PUSH1 0x22 PUSH1 0x4 MSTORE PUSH1 0x24 PUSH1 0x0 REVERT JUMPDEST PUSH1 0x0 PUSH1 0x2 DUP3 DIV SWAP1 POP PUSH1 0x1 DUP3 AND DUP1 PUSH2 0x9A1 JUMPI PUSH1 0x7F DUP3 AND SWAP2 POP JUMPDEST PUSH1 0x20 DUP3 LT DUP2 EQ ISZERO PUSH2 0x9B5 JUMPI PUSH2 0x9B4 PUSH2 0x95A JUMP JUMPDEST JUMPDEST POP SWAP2 SWAP1 POP JUMP JUMPDEST PUSH32 0x4E487B7100000000000000000000000000000000000000000000000000000000 PUSH1 0x0 MSTORE PUSH1 0x11 PUSH1 0x4 MSTORE PUSH1 0x24 PUSH1 0x0 REVERT JUMPDEST PUSH1 0x0 PUSH2 0x9F5 DUP3 PUSH2 0x511 JUMP JUMPDEST SWAP2 POP PUSH2 0xA00 DUP4 PUSH2 0x511 JUMP JUMPDEST SWAP3 POP DUP3 DUP3 LT ISZERO PUSH2 0xA13 JUMPI PUSH2 0xA12 PUSH2 0x9BB JUMP JUMPDEST JUMPDEST DUP3 DUP3 SUB SWAP1 POP SWAP3 SWAP2 POP POP JUMP JUMPDEST PUSH32 0x4E487B7100000000000000000000000000000000000000000000000000000000 PUSH1 0x0 MSTORE PUSH1 0x32 PUSH1 0x4 MSTORE PUSH1 0x24 PUSH1 0x0 REVERT JUMPDEST PUSH1 0x0 PUSH2 0xA58 DUP3 PUSH2 0x511 JUMP JUMPDEST SWAP2 POP PUSH32 0xFFFFFFFFFFFFFFFFFFFFFFFFFFFFFFFFFFFFFFFFFFFFFFFFFFFFFFFFFFFFFFFF DUP3 EQ ISZERO PUSH2 0xA8B JUMPI PUSH2 0xA8A PUSH2 0x9BB JUMP JUMPDEST JUMPDEST PUSH1 0x1 DUP3 ADD SWAP1 POP SWAP2 SWAP1 POP JUMP JUMPDEST PUSH32 0x4D657468616E65206C6576656C206D7573742062652067726561746572207468 PUSH1 0x0 DUP3 ADD MSTORE PUSH32 0x616E203000000000000000000000000000000000000000000000000000000000 PUSH1 0x20 DUP3 ADD MSTORE POP JUMP JUMPDEST PUSH1 0x0 PUSH2 0xAF2 PUSH1 0x24 DUP4 PUSH2 0x8C5 JUMP JUMPDEST SWAP2 POP PUSH2 0xAFD DUP3 PUSH2 0xA96 JUMP JUMPDEST PUSH1 0x40 DUP3 ADD SWAP1 POP SWAP2 SWAP1 POP JUMP JUMPDEST PUSH1 0x0 PUSH1 0x20 DUP3 ADD SWAP1 POP DUP2 DUP2 SUB PUSH1 0x0 DUP4 ADD MSTORE PUSH2 0xB21 DUP2 PUSH2 0xAE5 JUMP JUMPDEST SWAP1 POP SWAP2 SWAP1 POP JUMP JUMPDEST PUSH32 0x54696D657374616D70206D7573742062652070726F7669646564000000000000 PUSH1 0x0 DUP3 ADD MSTORE POP JUMP JUMPDEST PUSH1 0x0 PUSH2 0xB5E PUSH1 0x1A DUP4 PUSH2 0x8C5 JUMP JUMPDEST SWAP2 POP PUSH2 0xB69 DUP3 PUSH2 0xB28 JUMP JUMPDEST PUSH1 0x20 DUP3 ADD SWAP1 POP SWAP2 SWAP1 POP JUMP JUMPDEST PUSH1 0x0 PUSH1 0x20 DUP3 ADD SWAP1 POP DUP2 DUP2 SUB PUSH1 0x0 DUP4 ADD MSTORE PUSH2 0xB8D DUP2 PUSH2 0xB51 JUMP JUMPDEST SWAP1 POP SWAP2 SWAP1 POP JUMP INVALID LOG2 PUSH5 0x6970667358 0x22 SLT KECCAK256 CODESIZE 0x24 SMOD 0xB8 0x2D PUSH1 0x94 MOD CALLVALUE LOG4 0xB5 PUSH24 0x905E10DA028134371A11894FD68F709811AABAE64736F6C PUSH4 0x4300080A STOP CALLER "
    },
    "gasEstimates": {
      "creation": {
        "codeDepositCost": "603600",
        "executionCost": "638",
        "totalCost": "604238"
      },
      "external": {
        "assetCount()": "2473",
        "assets(uint256)": "infinite",
        "createAsset(uint256,string)": "infinite",
        "getAssets()": "infinite"
      }
    },
    "methodIdentifiers": {
      "assetCount()": "eafe7a74",
      "assets(uint256)": "cf35bdd0",
      "createAsset(uint256,string)": "cbcfe3ca",
      "getAssets()": "67e4ac2c"
    }
  },
  "storageLayout": {
    "storage": [
      {
        "astId": 11,
        "contract": "AssetContract.sol:AssetContract",
        "label": "assets",
        "offset": 0,
        "slot": "0",
        "type": "t_mapping(t_uint256,t_struct(Asset)6_storage)"
      },
      {
        "astId": 13,
        "contract": "AssetContract.sol:AssetContract",
        "label": "assetCount",
        "offset": 0,
        "slot": "1",
        "type": "t_uint256"
      }
    ],
    "types": {
      "t_mapping(t_uint256,t_struct(Asset)6_storage)": {
        "encoding": "mapping",
        "key": "t_uint256",
        "label": "mapping(uint256 => struct AssetContract.Asset)",
        "numberOfBytes": "32",
        "value": "t_struct(Asset)6_storage"
      },
      "t_string_storage": {
        "encoding": "bytes",
        "label": "string",
        "numberOfBytes": "32"
      },
      "t_struct(Asset)6_storage": {
        "encoding": "inplace",
        "label": "struct AssetContract.Asset",
        "members": [
          {
            "astId": 3,
            "contract": "AssetContract.sol:AssetContract",
            "label": "methaneLevel",
            "offset": 0,
            "slot": "0",
            "type": "t_uint256"
          },
          {
            "astId": 5,
            "contract": "AssetContract.sol:AssetContract",
            "label": "timestamp",
            "offset": 0,
            "slot": "1",
            "type": "t_string_storage"
          }
        ],
        "numberOfBytes": "64"
      },
      "t_uint256": {
        "encoding": "inplace",
        "label": "uint256",
        "numberOfBytes": "32"
      }
    }
  },
  "userdoc": {
    "kind": "user",
    "methods": {},
    "version": 1
  }
}